{
  "_format": "hh-sol-artifact-1",
  "contractName": "MatchContract",
  "sourceName": "contracts/MatchContract.sol",
  "abi": [
    {
      "inputs": [
        {
          "internalType": "address",
          "name": "_factory",
          "type": "address"
        },
        {
          "internalType": "address",
          "name": "_registry",
          "type": "address"
        }
      ],
      "stateMutability": "nonpayable",
      "type": "constructor"
    },
    {
      "anonymous": false,
      "inputs": [],
      "name": "DisputeInitiated",
      "type": "event"
    },
    {
      "anonymous": false,
      "inputs": [
        {
          "indexed": true,
          "internalType": "address",
          "name": "juror",
          "type": "address"
        },
        {
          "indexed": false,
          "internalType": "uint256",
          "name": "vote",
          "type": "uint256"
        }
      ],
      "name": "JuryVoted",
      "type": "event"
    },
    {
      "anonymous": false,
      "inputs": [
        {
          "indexed": false,
          "internalType": "address",
          "name": "player1",
          "type": "address"
        },
        {
          "indexed": false,
          "internalType": "address",
          "name": "player2",
          "type": "address"
        }
      ],
      "name": "MatchCreated",
      "type": "event"
    },
    {
      "anonymous": false,
      "inputs": [
        {
          "indexed": true,
          "internalType": "address",
          "name": "winner",
          "type": "address"
        }
      ],
      "name": "MatchResolved",
      "type": "event"
    },
    {
      "anonymous": false,
      "inputs": [
        {
          "indexed": true,
          "internalType": "address",
          "name": "player",
          "type": "address"
        }
      ],
      "name": "PlayerJoined",
      "type": "event"
    },
    {
      "anonymous": false,
      "inputs": [
        {
          "indexed": false,
          "internalType": "address",
          "name": "player",
          "type": "address"
        }
      ],
      "name": "ResultRevealed",
      "type": "event"
    },
    {
      "inputs": [],
      "name": "JURY_REWARD",
      "outputs": [
        {
          "internalType": "uint256",
          "name": "",
          "type": "uint256"
        }
      ],
      "stateMutability": "view",
      "type": "function"
    },
    {
      "inputs": [],
      "name": "JURY_STAKE",
      "outputs": [
        {
          "internalType": "uint256",
          "name": "",
          "type": "uint256"
        }
      ],
      "stateMutability": "view",
      "type": "function"
    },
    {
      "inputs": [],
      "name": "REP_JURY_VOTE",
      "outputs": [
        {
          "internalType": "int256",
          "name": "",
          "type": "int256"
        }
      ],
      "stateMutability": "view",
      "type": "function"
    },
    {
      "inputs": [],
      "name": "REP_LIED",
      "outputs": [
        {
          "internalType": "int256",
          "name": "",
          "type": "int256"
        }
      ],
      "stateMutability": "view",
      "type": "function"
    },
    {
      "inputs": [],
      "name": "REP_NO_REVEAL",
      "outputs": [
        {
          "internalType": "int256",
          "name": "",
          "type": "int256"
        }
      ],
      "stateMutability": "view",
      "type": "function"
    },
    {
      "inputs": [],
      "name": "REP_TRUTHFUL",
      "outputs": [
        {
          "internalType": "int256",
          "name": "",
          "type": "int256"
        }
      ],
      "stateMutability": "view",
      "type": "function"
    },
    {
      "inputs": [],
      "name": "REP_WIN",
      "outputs": [
        {
          "internalType": "int256",
          "name": "",
          "type": "int256"
        }
      ],
      "stateMutability": "view",
      "type": "function"
    },
    {
      "inputs": [],
      "name": "REVEAL_PERIOD",
      "outputs": [
        {
          "internalType": "uint256",
          "name": "",
          "type": "uint256"
        }
      ],
      "stateMutability": "view",
      "type": "function"
    },
    {
      "inputs": [],
      "name": "collectTournamentFunds",
      "outputs": [
        {
          "internalType": "uint256",
          "name": "",
          "type": "uint256"
        }
      ],
      "stateMutability": "nonpayable",
      "type": "function"
    },
    {
      "inputs": [
        {
          "internalType": "bytes32",
          "name": "hashedCommitment",
          "type": "bytes32"
        }
      ],
      "name": "commitResult",
      "outputs": [],
      "stateMutability": "payable",
      "type": "function"
    },
    {
      "inputs": [],
      "name": "creator",
      "outputs": [
        {
          "internalType": "address",
          "name": "",
          "type": "address"
        }
      ],
      "stateMutability": "view",
      "type": "function"
    },
    {
      "inputs": [],
      "name": "currentMatch",
      "outputs": [
        {
          "internalType": "address",
          "name": "player1",
          "type": "address"
        },
        {
          "internalType": "address",
          "name": "player2",
          "type": "address"
        },
        {
          "internalType": "bytes32",
          "name": "player1Commit",
          "type": "bytes32"
        },
        {
          "internalType": "bytes32",
          "name": "player2Commit",
          "type": "bytes32"
        },
        {
          "internalType": "bool",
          "name": "player1Joined",
          "type": "bool"
        },
        {
          "internalType": "bool",
          "name": "player2Joined",
          "type": "bool"
        },
        {
          "internalType": "string",
          "name": "player1Result",
          "type": "string"
        },
        {
          "internalType": "string",
          "name": "player2Result",
          "type": "string"
        },
        {
          "internalType": "bytes32",
          "name": "player1Salt",
          "type": "bytes32"
        },
        {
          "internalType": "bytes32",
          "name": "player2Salt",
          "type": "bytes32"
        },
        {
          "internalType": "uint256",
          "name": "entryFee",
          "type": "uint256"
        },
        {
          "internalType": "uint256",
          "name": "revealDeadline",
          "type": "uint256"
        },
        {
          "internalType": "string",
          "name": "resultCID",
          "type": "string"
        }
      ],
      "stateMutability": "view",
      "type": "function"
    },
    {
      "inputs": [],
      "name": "factory",
      "outputs": [
        {
          "internalType": "address",
          "name": "",
          "type": "address"
        }
      ],
      "stateMutability": "view",
      "type": "function"
    },
    {
      "inputs": [
        {
          "internalType": "address",
          "name": "winner",
          "type": "address"
        },
        {
          "internalType": "string",
          "name": "_cid",
          "type": "string"
        }
      ],
      "name": "finalizeMatchWithCID",
      "outputs": [],
      "stateMutability": "nonpayable",
      "type": "function"
    },
    {
      "inputs": [],
      "name": "getEntryFee",
      "outputs": [
        {
          "internalType": "uint256",
          "name": "",
          "type": "uint256"
        }
      ],
      "stateMutability": "view",
      "type": "function"
    },
    {
      "inputs": [],
      "name": "getMatchStatus",
      "outputs": [
        {
          "internalType": "enum MatchContract.MatchStatus",
          "name": "",
          "type": "uint8"
        }
      ],
      "stateMutability": "view",
      "type": "function"
    },
    {
      "inputs": [
        {
          "internalType": "address",
          "name": "_creator",
          "type": "address"
        },
        {
          "internalType": "address",
          "name": "_player1",
          "type": "address"
        },
        {
          "internalType": "address",
          "name": "_player2",
          "type": "address"
        },
        {
          "internalType": "uint256",
          "name": "_entryFee",
          "type": "uint256"
        },
        {
          "internalType": "address",
          "name": "_tournamentContract",
          "type": "address"
        },
        {
          "internalType": "uint256",
          "name": "_tournamentId",
          "type": "uint256"
        },
        {
          "internalType": "uint256",
          "name": "_roundNumber",
          "type": "uint256"
        },
        {
          "internalType": "uint256",
          "name": "_matchIndex",
          "type": "uint256"
        }
      ],
      "name": "initialize",
      "outputs": [],
      "stateMutability": "nonpayable",
      "type": "function"
    },
    {
      "inputs": [],
      "name": "initialized",
      "outputs": [
        {
          "internalType": "bool",
          "name": "",
          "type": "bool"
        }
      ],
      "stateMutability": "view",
      "type": "function"
    },
    {
      "inputs": [],
      "name": "isTournamentMatch",
      "outputs": [
        {
          "internalType": "bool",
          "name": "",
          "type": "bool"
        }
      ],
      "stateMutability": "view",
      "type": "function"
    },
    {
      "inputs": [],
      "name": "joinJury",
      "outputs": [],
      "stateMutability": "payable",
      "type": "function"
    },
    {
      "inputs": [],
      "name": "joinMatch",
      "outputs": [],
      "stateMutability": "payable",
      "type": "function"
    },
    {
      "inputs": [],
      "name": "matchIndex",
      "outputs": [
        {
          "internalType": "uint256",
          "name": "",
          "type": "uint256"
        }
      ],
      "stateMutability": "view",
      "type": "function"
    },
    {
      "inputs": [
        {
          "internalType": "address",
          "name": "",
          "type": "address"
        }
      ],
      "name": "players",
      "outputs": [
        {
          "internalType": "int256",
          "name": "reputation",
          "type": "int256"
        },
        {
          "internalType": "uint256",
          "name": "totalMatches",
          "type": "uint256"
        },
        {
          "internalType": "bool",
          "name": "isBanned",
          "type": "bool"
        }
      ],
      "stateMutability": "view",
      "type": "function"
    },
    {
      "inputs": [],
      "name": "reputationRegistry",
      "outputs": [
        {
          "internalType": "contract ReputationRegistry",
          "name": "",
          "type": "address"
        }
      ],
      "stateMutability": "view",
      "type": "function"
    },
    {
      "inputs": [
        {
          "internalType": "bytes32",
          "name": "salt",
          "type": "bytes32"
        },
        {
          "internalType": "bool",
          "name": "result",
          "type": "bool"
        }
      ],
      "name": "revealResult",
      "outputs": [],
      "stateMutability": "nonpayable",
      "type": "function"
    },
    {
      "inputs": [],
      "name": "roundNumber",
      "outputs": [
        {
          "internalType": "uint256",
          "name": "",
          "type": "uint256"
        }
      ],
      "stateMutability": "view",
      "type": "function"
    },
    {
      "inputs": [],
      "name": "status",
      "outputs": [
        {
          "internalType": "enum MatchContract.MatchStatus",
          "name": "",
          "type": "uint8"
        }
      ],
      "stateMutability": "view",
      "type": "function"
    },
    {
      "inputs": [],
      "name": "tournamentContract",
      "outputs": [
        {
          "internalType": "address",
          "name": "",
          "type": "address"
        }
      ],
      "stateMutability": "view",
      "type": "function"
    },
    {
      "inputs": [],
      "name": "tournamentId",
      "outputs": [
        {
          "internalType": "uint256",
          "name": "",
          "type": "uint256"
        }
      ],
      "stateMutability": "view",
      "type": "function"
    },
    {
      "inputs": [
        {
          "internalType": "uint256",
          "name": "vote",
          "type": "uint256"
        }
      ],
      "name": "voteAsJuror",
      "outputs": [],
      "stateMutability": "nonpayable",
      "type": "function"
    }
  ],
  "bytecode": "0x60c0346100af57601f6127e538819003918201601f19168301916001600160401b038311848410176100b45780849260409485528339810103126100af57610052602061004b836100ca565b92016100ca565b6080919091526001600160a01b031660a05260405161270690816100df8239608051818181610e6a0152611e5d015260a05181818161041a015281816104e801528181610ca401528181610eaf0152818161223c015261248c0152f35b600080fd5b634e487b7160e01b600052604160045260246000fd5b51906001600160a01b03821682036100af5756fe6080604052600436101561001257600080fd5b60003560e01c806302c0cdc4146101f257806302d05d3f146101ed57806302edf4b4146101e85780630ac2c4c3146101e35780630ee67e90146101de578063158ef93e146101d9578063175c55f9146101d4578063200d2ed21461017a57806327a69176146101cf5780632c70444e146101ca5780634e2786fb146101c55780636be6258b146101c05780638b227ff4146101bb578063a4785d14146101b6578063ad18f0da146101b1578063bd18f44c146101ac578063c05b0124146101a7578063c3529f31146101a2578063c45a01551461019d578063c8db44e314610198578063da03fef614610193578063dda68b9d1461018e578063e0aff41514610189578063e2eb41ff14610184578063e586a4f01461017f578063e8779bf11461017a578063eae48b6214610175578063f809ab4314610170578063fbeb89dd1461016b5763fc04b7871461016657600080fd5b6112e0565b6112b7565b611299565b611234565b6105ca565b611216565b6111c0565b6111a4565b610f0b565b610ede565b610e99565b610e54565b610e36565b610d4e565b610c75565b610aaa565b610a35565b610a18565b6109f6565b6109d8565b61095e565b6105fd565b61058c565b610566565b610396565b61037a565b61035e565b610335565b610207565b600091031261020257565b600080fd5b600036600319011261020257600654336001600160a01b038216148015610321575b61023290611463565b600f5434036102ea5761027461028091337f31e760aa525306aba638a784082a013b6a1cc0a9a1789f3f22281c0453b10b1f600080a26001600160a01b031690565b6001600160a01b031690565b33036102d157610298600160ff19600a541617600a55565b600a5460ff811690816102c3575b506102ad57005b6102c161010060055461ff00191617600555565b005b60081c60ff169050386102a6565b6102e5610100600a5461ff00191617600a55565b610298565b60405162461bcd60e51b815260206004820152600f60248201526e57726f6e6720456e7472792046656560881b6044820152606490fd5b506007546001600160a01b03163314610229565b34610202576000366003190112610202576000546040516001600160a01b039091168152602090f35b3461020257600036600319011261020257602060405160058152f35b34610202576000366003190112610202576020604051600a8152f35b6020366003190112610202576004356006546103f09061027490336001600160a01b038216148015610552575b6103cc90611463565b61027460016103e160055460ff9060081c1690565b6103ea816105aa565b146114af565b33036104c457604051630c2eb40360e01b8152336004820152906020826024816001600160a01b037f0000000000000000000000000000000000000000000000000000000000000000165afa9182156104bf576104609261045b91600091610490575b503414611564565b600855565b600854151580610485575b61047157005b6102c161020060055461ff00191617600555565b50600954151561046b565b6104b2915060203d6020116104b8575b6104aa8183610670565b8101906114f1565b38610453565b503d6104a0565b611500565b604051630c2eb40360e01b8152336004820152906020826024816001600160a01b037f0000000000000000000000000000000000000000000000000000000000000000165afa9182156104bf5761052e9261052991600091610533575b50341461150c565b600955565b610460565b61054c915060203d6020116104b8576104aa8183610670565b38610521565b506007546001600160a01b031633146103c3565b3461020257600036600319011261020257602060ff60005460a01c166040519015158152f35b34610202576000366003190112610202576020600454604051908152f35b600511156105b457565b634e487b7160e01b600052602160045260246000fd5b346102025760003660031901126102025760ff60055460081c16604051906020820160058210156105b457829182520390f35b3461020257600036600319011261020257602060405167016345785d8a00008152f35b90600182811c92168015610650575b602083101461063a57565b634e487b7160e01b600052602260045260246000fd5b91607f169161062f565b634e487b7160e01b600052604160045260246000fd5b90601f8019910116810190811067ffffffffffffffff82111761069257604052565b61065a565b60405190600082600b54916106ab83610620565b808352926001811690811561073157506001146106d1575b6106cf92500383610670565b565b50600b600090815290917f0175b7a638427703f0dbe7bb9bbf987a2551717b34e79f33b5b1008d1fa01db95b8183106107155750509060206106cf928201016106c3565b60209193508060019154838589010152019101909184926106fd565b602092506106cf94915060ff191682840152151560051b8201016106c3565b60405190600082600c549161076483610620565b80835292600181169081156107315750600114610787576106cf92500383610670565b50600c600090815290917fdf6966c971051c3d54ec59162606531493a51404a002842f56009d7e5cf4a8c75b8183106107cb5750509060206106cf928201016106c3565b60209193508060019154838589010152019101909184926107b3565b60405190600082601354916107fb83610620565b8083529260018116908115610731575060011461081e576106cf92500383610670565b506013600090815290917f66de8ffda797e3de9c05e8fc57b3bf0ec28a930d40b0d285d93c06501cf6a0905b8183106108625750509060206106cf928201016106c3565b602091935080600191548385890101520191019091849261084a565b919082519283825260005b8481106108aa575050826000602080949584010152601f8019910116010190565b80602080928401015182828601015201610889565b6001600160a01b0391821681529116602082015261095b9b979a9799909890969095610934959194610926949193610913939261090a929160408e015260608d0152151560808c0152565b151560a08a0152565b6101a060c08901526101a088019061087e565b9086820360e088015261087e565b9561010085015261012084015261014083015261016082015261018081840391015261087e565b90565b3461020257600036600319011261020257600654600754600854600954600a5491936001600160a01b03938416936109d49391169061099b610697565b6109a3610750565b600d5490600e5492600f5494601254966109bb6107e7565b986040519c8d9c8d9360ff808760081c169616946108bf565b0390f35b34610202576000366003190112610202576020600354604051908152f35b3461020257600036600319011261020257602060405166b1a2bc2ec500008152f35b346102025760003660031901126102025760206040516031198152f35b346102025760003660031901126102025760206040516018198152f35b600435906001600160a01b038216820361020257565b602435906001600160a01b038216820361020257565b604435906001600160a01b038216820361020257565b608435906001600160a01b038216820361020257565b3461020257610100366003190112610202577f400084faa1d1feebd72b5492202d9905c0f245dfb43e76ca408fb6f113188e28610ae5610a52565b610aed610a68565b610af5610a7e565b9160643590610b02610a94565b9160a43590610b9160c43591610b5660e43595610b34610b2f610b2b60005460ff9060a01c1690565b1590565b6115bc565b60018060a01b03166bffffffffffffffffffffffff60a01b6000541617600055565b600680546001600160a01b0319166001600160a01b038916179055600780546001600160a01b0319166001600160a01b038a16179055600f55565b610ba2610b9d42611614565b601255565b610bb260055461ff001916600555565b610bc160ff19600a5416600a55565b610bd1600a5461ff001916600a55565b6001600160a01b038416610c1b575b50506000805460ff60a01b1916600160a01b17905550610bfd9050565b604080516001600160a01b03928316815292909116602083015290a1005b610c50610c5592610c4b610c5a9660018060a01b03166bffffffffffffffffffffffff60a01b6001541617600155565b600255565b600355565b600455565b610c6c600160ff196005541617600555565b38808080610be0565b6000366003190112610202576040516397f735d560e01b81523360048201526020816024816001600160a01b037f0000000000000000000000000000000000000000000000000000000000000000165afa80156104bf57610cdf91600091610d1f575b501561163e565b610cf267016345785d8a0000341461167b565b610d166003610d0760055460ff9060081c1690565b610d10816105aa565b146116be565b6102c133611734565b610d41915060203d602011610d47575b610d398183610670565b810190611629565b38610cd8565b503d610d2f565b34610202576000366003190112610202576001546109d490610d7a6001600160a01b03821633146117a0565b610db0610dab600554610da56004610d968360ff9060081c1690565b610d9f816105aa565b146117f6565b60ff1690565b611838565b610dc6479161027483610dc161187d565b612086565b610dd781610dd26118ac565b6120ce565b8180610e00575b5050610df0610deb61195d565b61211c565b6040519081529081906020820190565b610e2f91600091829182918291610e1f906001600160a01b0316610274565b5af1610e296118df565b5061191f565b3881610dde565b346102025760003660031901126102025760206040516202a3008152f35b34610202576000366003190112610202576040517f00000000000000000000000000000000000000000000000000000000000000006001600160a01b03168152602090f35b34610202576000366003190112610202576040517f00000000000000000000000000000000000000000000000000000000000000006001600160a01b03168152602090f35b3461020257600036600319011261020257602060ff600554166040519015158152f35b8015150361020257565b3461020257604036600319011261020257602435600435610f2b82610f01565b60065491336001600160a01b038416148015611190575b610f4b90611463565b610f6f6002610f6060055460ff9060081c1690565b610f69816105aa565b146119a3565b610f7d6012544211156119e5565b610fd26102746040516020810190610fc281610fb48885602e916d092bee4cae0dee4e8bee8e4eae8d60931b8252600e8201520190565b03601f198101835282610670565b519020946001600160a01b031690565b330361114b57610fe86110029360085414611a29565b1561114057610ffd610ff8611a66565b611bf3565b600d55565b61100d610deb611cff565b6040513381527e01b490249fff34733daaebb3b937fce38cf91f06f25e539990946fae7310fc90602090a1611043610deb611d2e565b600d54151580611135575b61105457005b604051602081019061106981610fb484611d59565b519020604051602081019061108181610fb484611de2565b519020036110fa57604051602081019061109e81610fb484611de2565b5190206040516a383630bcb2b9192fbbb7b760a91b60208201908152906110c881602b8101610fb4565b519020036110e5576007546102c1906001600160a01b0316612200565b6006546102c1906001600160a01b0316612200565b61110e61030060055461ff00191617600555565b7f621fa206498e1fb6f62fd603046d8a282e70e3fcdb4372bcfda0df1ea9b0a547600080a1005b50600e54151561104e565b610ffd610ff8611a8f565b61115b6111759360095414611a29565b156111855761117061116b611a8f565b611b0a565b600e55565b611180610deb611cd0565b61100d565b61117061116b611a66565b506007546001600160a01b03163314610f42565b34610202576000366003190112610202576020604051600f8152f35b34610202576020366003190112610202576001600160a01b036111e1610a52565b1660005260146020526060604060002080549060ff600260018301549201541690604051928352602083015215156040820152f35b34610202576000366003190112610202576020600f54604051908152f35b346102025760403660031901126102025761124d610a52565b6024359067ffffffffffffffff821161020257366023830112156102025781600401359067ffffffffffffffff82116102025736602483850101116102025760246102c1930190611e59565b34610202576000366003190112610202576020600254604051908152f35b34610202576000366003190112610202576001546040516001600160a01b039091168152602090f35b34610202576020366003190112610202576004356113096003610d0760055460ff9060081c1690565b6010546000805b828110611422575b50611323915061203d565b33600081815260116020908152604091829020849055905192835290917fba16d6c69d9501b1e025427f587bcf0a2a79e55b9f669d95965c4e7692d08bda9190a2601054600381101561137257005b600080916000905b8082106113b3575050111561139e576006546102c1906001600160a01b031661244e565b6007546102c1906001600160a01b031661244e565b909160016113f56113db6113c686611714565b905460039190911b1c6001600160a01b031690565b6001600160a01b0316600090815260116020526040902090565b540361140f57611406600191612077565b925b019061137a565b919261141c600191612077565b93611408565b61027461144861143183611714565b9054339360039290921b1c6001600160a01b031690565b1461145557600101611310565b505050611323600138611318565b1561146a57565b60405162461bcd60e51b815260206004820152601a60248201527f4e6f74206120706c61796572206f662074686973204d617463680000000000006044820152606490fd5b156114b657565b60405162461bcd60e51b81526020600482015260136024820152724e6f7420696e20636f6d6d697420706861736560681b6044820152606490fd5b90816020910312610202575190565b6040513d6000823e3d90fd5b1561151357565b60405162461bcd60e51b815260206004820152602360248201527f496e636f7272656374207374616b6520616d6f756e7420666f7220706c61796560448201526239101960e91b6064820152608490fd5b1561156b57565b60405162461bcd60e51b815260206004820152602360248201527f496e636f7272656374207374616b6520616d6f756e7420666f7220706c61796560448201526272203160e81b6064820152608490fd5b156115c357565b60405162461bcd60e51b8152602060048201526013602482015272105b1c9958591e481a5b9a5d1a585b1a5e9959606a1b6044820152606490fd5b634e487b7160e01b600052601160045260246000fd5b906202a300820180921161162457565b6115fe565b90816020910312610202575161095b81610f01565b1561164557565b60405162461bcd60e51b815260206004820152600e60248201526d165bdd48185c994818985b9b995960921b6044820152606490fd5b1561168257565b60405162461bcd60e51b8152602060048201526014602482015273496e636f7272656374206a757279207374616b6560601b6044820152606490fd5b156116c557565b60405162461bcd60e51b81526020600482015260116024820152704e6f20616374697665206469737075746560781b6044820152606490fd5b634e487b7160e01b600052603260045260246000fd5b60105481101561172f57601060005260206000200190600090565b6116fe565b601054680100000000000000008110156106925760018101601055600060105482101561172f57601090527f1b6847dc741a1b0cd08d278845f9d819d87b734759afb55fe2de5cb82a9ae6720180546001600160a01b0319166001600160a01b03909216919091179055565b156117a757565b60405162461bcd60e51b815260206004820152602160248201527f4f6e6c7920746f75726e616d656e742063616e20636f6c6c6563742066756e646044820152607360f81b6064820152608490fd5b156117fd57565b60405162461bcd60e51b815260206004820152601360248201527213585d18da081b9bdd0818dbdb5c1b195d1959606a1b6044820152606490fd5b1561183f57565b60405162461bcd60e51b815260206004820152601660248201527509cdee840c240e8deeae4dcc2dacadce840dac2e8c6d60531b6044820152606490fd5b6040519061188c604083610670565b601182527002932b6b0b4b734b73390233ab732399d1607d1b6020830152565b604051906118bb604083610670565b601582527402a37bab93730b6b2b73a1031b7b73a3930b1ba1d1605d1b6020830152565b3d1561191a573d9067ffffffffffffffff8211610692576040519161190e601f8201601f191660200184610670565b82523d6000602084013e565b606090565b1561192657565b60405162461bcd60e51b815260206004820152600f60248201526e151c985b9cd9995c8819985a5b1959608a1b6044820152606490fd5b6040519061196c606083610670565b602282526118dd60f21b6040837f5472616e7366657272656420746f20746f75726e616d656e7420636f6e74726160208201520152565b156119aa57565b60405162461bcd60e51b81526020600482015260136024820152724e6f7420696e2072657665616c20706861736560681b6044820152606490fd5b156119ec57565b60405162461bcd60e51b815260206004820152601560248201527414995d99585b081c195c9a5bd908195e1c1a5c9959605a1b6044820152606490fd5b15611a3057565b60405162461bcd60e51b815260206004820152600e60248201526d125b9d985b1a59081c995d99585b60921b6044820152606490fd5b60405190611a75604083610670565b600b82526a383630bcb2b918afbbb7b760a91b6020830152565b60405190611a9e604083610670565b600b82526a383630bcb2b9192fbbb7b760a91b6020830152565b601f8211611ac557505050565b6000526020600020906020601f840160051c83019310611b00575b601f0160051c01905b818110611af4575050565b60008155600101611ae9565b9091508190611ae0565b90815167ffffffffffffffff811161069257611b3281611b2b600c54610620565b600c611ab8565b602092601f8211600114611b7457611b6492938291600092611b69575b50508160011b916000199060031b1c19161790565b600c55565b015190503880611b4f565b600c600052601f198216937fdf6966c971051c3d54ec59162606531493a51404a002842f56009d7e5cf4a8c79160005b868110611bdb5750836001959610611bc2575b505050811b01600c55565b015160001960f88460031b161c19169055388080611bb7565b91926020600181928685015181550194019201611ba4565b90815167ffffffffffffffff811161069257611c1b81611c14600b54610620565b600b611ab8565b602092601f8211600114611c5157611c4c92938291600092611b695750508160011b916000199060031b1c19161790565b600b55565b600b600052601f198216937f0175b7a638427703f0dbe7bb9bbf987a2551717b34e79f33b5b1008d1fa01db99160005b868110611cb85750836001959610611c9f575b505050811b01600b55565b015160001960f88460031b161c19169055388080611c94565b91926020600181928685015181550194019201611c81565b60405190611cdf604083610670565b6011825270141b185e595c880c881c995d99585b1959607a1b6020830152565b60405190611d0e604083610670565b6011825270141b185e595c880c481c995d99585b1959607a1b6020830152565b60405190611d3d604083610670565b600d82526c109bdd1a081c995d99585b1959609a1b6020830152565b600b5460009291611d6982610620565b9160018116908115611dd05750600114611d81575050565b600b600090815292935090917f0175b7a638427703f0dbe7bb9bbf987a2551717b34e79f33b5b1008d1fa01db95b838210611dbc5750500190565b600181602092548486015201910190611daf565b60ff1916825250811515909102019150565b600c5460009291611df282610620565b9160018116908115611dd05750600114611e0a575050565b600c600090815292935090917fdf6966c971051c3d54ec59162606531493a51404a002842f56009d7e5cf4a8c75b838210611e455750500190565b600181602092548486015201910190611e38565b91907f00000000000000000000000000000000000000000000000000000000000000006001600160a01b03163303611ee4576005549260ff8460081c169360058510156105b457611ebf600391611eb660046106cf981415611f17565b60081c60ff1690565b611ec8816105aa565b03611edb57611ed69061244e565b611f57565b611ed690612200565b60405162461bcd60e51b815260206004820152600b60248201526a4e6f7420466163746f727960a81b6044820152606490fd5b15611f1e57565b60405162461bcd60e51b8152602060048201526011602482015270105b1c9958591e48199a5b985b1a5e9959607a1b6044820152606490fd5b919067ffffffffffffffff811161069257611f7e81611f77601354610620565b6013611ab8565b6000601f8211600114611fbe578190611fae9394600092611fb35750508160011b916000199060031b1c19161790565b601355565b013590503880611b4f565b6013600052601f198216937f66de8ffda797e3de9c05e8fc57b3bf0ec28a930d40b0d285d93c06501cf6a09091805b868110612025575083600195961061200b575b505050811b01601355565b0135600019600384901b60f8161c19169055388080612000565b90926020600181928686013581550194019101611fed565b1561204457565b60405162461bcd60e51b815260206004820152600b60248201526a2737ba103090353ab937b960a91b6044820152606490fd5b60001981146116245760010190565b6120c96120b5916106cf93604051938492632d839cb360e21b602085015260406024850152606484019061087e565b90604483015203601f198101835282610670565b6126b5565b6120c96120fd916106cf9360405193849263319af33360e01b602085015260406024850152606484019061087e565b6001600160a01b0391909116604483015203601f198101835282610670565b610fb46120c96106cf9260405192839163104c13eb60e21b602084015260206024840152604483019061087e565b908160011b918083046002149015171561162457565b908166b1a2bc2ec50000029166b1a2bc2ec5000083040361162457565b6040519061218c604083610670565b601782527f546f75726e616d656e742064657461696c733a2069643d0000000000000000006020830152565b604051906121c7606083610670565b60248252631b595b9d60e21b6040837f4661696c656420746f207265706f7274206d6174636820746f20746f75726e6160208201520152565b61221461040060055461ff00191617600555565b6006546001600160a01b0382811692911680830361243c57506007546001600160a01b03165b7f00000000000000000000000000000000000000000000000000000000000000006001600160a01b0316803b156102025760405163af8c524760e01b81526001600160a01b0384166004820152600f60248201526000604482018190528160648183865af180156104bf57612427575b50803b156102025760405163af8c524760e01b81526001600160a01b03929092166004830152600a6024830152600060448301819052908290606490829084905af180156104bf5761240c575b5060055460ff16156123df576000809160025461231681610dc161217d565b60015483906001600160a01b0316600354600454604051635d41d3eb60e11b602082019081526024820196909652604481019290925260648201526001600160a01b0390941660848501529261236f8160a48101610fb4565b51925af161237b6118df565b901590816123c1575b506123b1575b7fe24a70990ecb8faa452b0c2734367241a6a9e50789ef324c26e59e09b0bc1332600080a2565b6123bc610deb6121b8565b61238a565b6123cc610deb6121b8565b805190816123da5750612384565b602001fd5b5060008080806123f0600f5461214a565b85828215612403575bf161238a57611500565b506108fc6123f9565b8061241b600061242193610670565b806101f7565b386122f7565b8061241b600061243693610670565b386122aa565b61223a565b9190820391821161162457565b9061246361040060055461ff00191617600555565b6006546001600160a01b038381169291168083036126af57506007546001600160a01b0316925b7f00000000000000000000000000000000000000000000000000000000000000006001600160a01b031693843b156102025760405163af8c524760e01b81526001600160a01b0391909116600482015260311960248201526000604482018190528160648183895af180156104bf5761269a575b5060055460ff161561265957600154600254600354600454604051635d41d3eb60e11b602082019081526024820194909452604481019290925260648201526001600160a01b039384166084820152600093849316919083906125648160a48101610fb4565b51925af16125706118df565b5015612649575b60005b60105481101561261f57600080808066b1a2bc2ec500006125a36102746102746113c689611714565b82f1156104bf576125b66113c682611714565b90843b156102025760405163af8c524760e01b81526001600160a01b03929092166004830152600560248301526000604483018190528260648183895af19182156104bf5760019261260a575b500161257a565b8061241b600061261993610670565b38612603565b5091507fe24a70990ecb8faa452b0c2734367241a6a9e50789ef324c26e59e09b0bc1332600080a2565b612654610deb6121b8565b612577565b50600080808061267e61266d600f5461214a565b612678601054612160565b90612441565b86828215612691575bf161257757611500565b506108fc612687565b8061241b60006126a993610670565b386124fe565b9261248a565b600080916020815191016a636f6e736f6c652e6c6f675afa5056fea264697066735822122010d6d0030d10309494c4a4c666944805f25e2642537a2791a8b6a01e31390d7e64736f6c634300081c0033",
  "linkReferences": {},
  "deployedLinkReferences": {}
}