{
    "_format": "hh-sol-artifact-1",
    "contractName": "TournamentContract",
    "sourceName": "contracts/TournamentContract.sol",
    "abi": [
        {
            "inputs": [
                {
                    "internalType": "address",
                    "name": "_factoryAddress",
                    "type": "address"
                }
            ],
            "stateMutability": "nonpayable",
            "type": "constructor"
        },
        {
            "anonymous": false,
            "inputs": [
                {
                    "indexed": true,
                    "internalType": "uint256",
                    "name": "tournamentId",
                    "type": "uint256"
                },
                {
                    "indexed": true,
                    "internalType": "uint256",
                    "name": "roundNumber",
                    "type": "uint256"
                },
                {
                    "indexed": false,
                    "internalType": "address",
                    "name": "matchAddress",
                    "type": "address"
                }
            ],
            "name": "MatchCreated",
            "type": "event"
        },
        {
            "anonymous": false,
            "inputs": [
                {
                    "indexed": true,
                    "internalType": "uint256",
                    "name": "tournamentId",
                    "type": "uint256"
                },
                {
                    "indexed": false,
                    "internalType": "uint256",
                    "name": "roundNumber",
                    "type": "uint256"
                },
                {
                    "indexed": false,
                    "internalType": "uint256",
                    "name": "matchIndex",
                    "type": "uint256"
                },
                {
                    "indexed": false,
                    "internalType": "uint256",
                    "name": "amount",
                    "type": "uint256"
                }
            ],
            "name": "MatchFundsCollected",
            "type": "event"
        },
        {
            "anonymous": false,
            "inputs": [
                {
                    "indexed": true,
                    "internalType": "uint256",
                    "name": "tournamentId",
                    "type": "uint256"
                },
                {
                    "indexed": false,
                    "internalType": "address",
                    "name": "player",
                    "type": "address"
                }
            ],
            "name": "PlayerRegistered",
            "type": "event"
        },
        {
            "anonymous": false,
            "inputs": [
                {
                    "indexed": true,
                    "internalType": "uint256",
                    "name": "tournamentId",
                    "type": "uint256"
                }
            ],
            "name": "RegistrationClosed",
            "type": "event"
        },
        {
            "anonymous": false,
            "inputs": [
                {
                    "indexed": true,
                    "internalType": "uint256",
                    "name": "tournamentId",
                    "type": "uint256"
                },
                {
                    "indexed": false,
                    "internalType": "uint256",
                    "name": "roundNumber",
                    "type": "uint256"
                }
            ],
            "name": "RoundCompleted",
            "type": "event"
        },
        {
            "anonymous": false,
            "inputs": [
                {
                    "indexed": true,
                    "internalType": "uint256",
                    "name": "tournamentId",
                    "type": "uint256"
                },
                {
                    "indexed": false,
                    "internalType": "uint256",
                    "name": "roundNumber",
                    "type": "uint256"
                }
            ],
            "name": "RoundStarted",
            "type": "event"
        },
        {
            "anonymous": false,
            "inputs": [
                {
                    "indexed": true,
                    "internalType": "uint256",
                    "name": "tournamentId",
                    "type": "uint256"
                }
            ],
            "name": "TournamentCancelled",
            "type": "event"
        },
        {
            "anonymous": false,
            "inputs": [
                {
                    "indexed": true,
                    "internalType": "uint256",
                    "name": "tournamentId",
                    "type": "uint256"
                },
                {
                    "indexed": false,
                    "internalType": "address",
                    "name": "winner",
                    "type": "address"
                },
                {
                    "indexed": false,
                    "internalType": "uint256",
                    "name": "prize",
                    "type": "uint256"
                }
            ],
            "name": "TournamentCompleted",
            "type": "event"
        },
        {
            "anonymous": false,
            "inputs": [
                {
                    "indexed": true,
                    "internalType": "uint256",
                    "name": "tournamentId",
                    "type": "uint256"
                },
                {
                    "indexed": false,
                    "internalType": "string",
                    "name": "name",
                    "type": "string"
                },
                {
                    "indexed": false,
                    "internalType": "uint256",
                    "name": "entryFee",
                    "type": "uint256"
                },
                {
                    "indexed": false,
                    "internalType": "uint256",
                    "name": "maxParticipants",
                    "type": "uint256"
                }
            ],
            "name": "TournamentCreated",
            "type": "event"
        },
        {
            "inputs": [
                {
                    "internalType": "uint256",
                    "name": "_tournamentId",
                    "type": "uint256"
                }
            ],
            "name": "cancelTournament",
            "outputs": [],
            "stateMutability": "nonpayable",
            "type": "function"
        },
        {
            "inputs": [
                {
                    "internalType": "string",
                    "name": "_name",
                    "type": "string"
                },
                {
                    "internalType": "string",
                    "name": "_description",
                    "type": "string"
                },
                {
                    "internalType": "uint256",
                    "name": "_entryFee",
                    "type": "uint256"
                },
                {
                    "internalType": "uint256",
                    "name": "_maxParticipants",
                    "type": "uint256"
                },
                {
                    "internalType": "uint256",
                    "name": "_startTime",
                    "type": "uint256"
                }
            ],
            "name": "createTournament",
            "outputs": [],
            "stateMutability": "nonpayable",
            "type": "function"
        },
        {
            "inputs": [],
            "name": "factory",
            "outputs": [
                {
                    "internalType": "contract MatchContractFactory",
                    "name": "",
                    "type": "address"
                }
            ],
            "stateMutability": "view",
            "type": "function"
        },
        {
            "inputs": [
                {
                    "internalType": "uint256",
                    "name": "_tournamentId",
                    "type": "uint256"
                },
                {
                    "internalType": "uint256",
                    "name": "_roundNumber",
                    "type": "uint256"
                }
            ],
            "name": "getRoundWinners",
            "outputs": [
                {
                    "internalType": "address[]",
                    "name": "",
                    "type": "address[]"
                }
            ],
            "stateMutability": "view",
            "type": "function"
        },
        {
            "inputs": [
                {
                    "internalType": "uint256",
                    "name": "_tournamentId",
                    "type": "uint256"
                }
            ],
            "name": "getTournamentDetails",
            "outputs": [
                {
                    "internalType": "string",
                    "name": "name",
                    "type": "string"
                },
                {
                    "internalType": "string",
                    "name": "description",
                    "type": "string"
                },
                {
                    "internalType": "uint256",
                    "name": "entryFee",
                    "type": "uint256"
                },
                {
                    "internalType": "uint256",
                    "name": "maxParticipants",
                    "type": "uint256"
                },
                {
                    "internalType": "uint256",
                    "name": "registeredParticipants",
                    "type": "uint256"
                },
                {
                    "internalType": "uint256",
                    "name": "startTime",
                    "type": "uint256"
                },
                {
                    "internalType": "enum TournamentContract.TournamentStatus",
                    "name": "status",
                    "type": "uint8"
                },
                {
                    "internalType": "uint256",
                    "name": "currentRound",
                    "type": "uint256"
                },
                {
                    "internalType": "uint256",
                    "name": "totalRounds",
                    "type": "uint256"
                },
                {
                    "internalType": "uint256",
                    "name": "totalPrize",
                    "type": "uint256"
                }
            ],
            "stateMutability": "view",
            "type": "function"
        },
        {
            "inputs": [
                {
                    "internalType": "uint256",
                    "name": "_tournamentId",
                    "type": "uint256"
                }
            ],
            "name": "getTournamentParticipants",
            "outputs": [
                {
                    "internalType": "address[]",
                    "name": "",
                    "type": "address[]"
                }
            ],
            "stateMutability": "view",
            "type": "function"
        },
        {
            "inputs": [
                {
                    "internalType": "uint256",
                    "name": "_tournamentId",
                    "type": "uint256"
                }
            ],
            "name": "registerForTournament",
            "outputs": [],
            "stateMutability": "payable",
            "type": "function"
        },
        {
            "inputs": [
                {
                    "internalType": "uint256",
                    "name": "_tournamentId",
                    "type": "uint256"
                },
                {
                    "internalType": "uint256",
                    "name": "_roundNumber",
                    "type": "uint256"
                },
                {
                    "internalType": "uint256",
                    "name": "_matchIndex",
                    "type": "uint256"
                },
                {
                    "internalType": "address",
                    "name": "_winner",
                    "type": "address"
                }
            ],
            "name": "reportMatchResult",
            "outputs": [],
            "stateMutability": "nonpayable",
            "type": "function"
        },
        {
            "inputs": [],
            "name": "reputationRegistry",
            "outputs": [
                {
                    "internalType": "contract ReputationRegistry",
                    "name": "",
                    "type": "address"
                }
            ],
            "stateMutability": "view",
            "type": "function"
        },
        {
            "inputs": [
                {
                    "internalType": "uint256",
                    "name": "_tournamentId",
                    "type": "uint256"
                }
            ],
            "name": "startTournament",
            "outputs": [],
            "stateMutability": "nonpayable",
            "type": "function"
        },
        {
            "inputs": [],
            "name": "tournamentCount",
            "outputs": [
                {
                    "internalType": "uint256",
                    "name": "",
                    "type": "uint256"
                }
            ],
            "stateMutability": "view",
            "type": "function"
        },
        {
            "inputs": [
                {
                    "internalType": "uint256",
                    "name": "",
                    "type": "uint256"
                }
            ],
            "name": "tournaments",
            "outputs": [
                {
                    "internalType": "string",
                    "name": "name",
                    "type": "string"
                },
                {
                    "internalType": "string",
                    "name": "description",
                    "type": "string"
                },
                {
                    "internalType": "uint256",
                    "name": "entryFee",
                    "type": "uint256"
                },
                {
                    "internalType": "uint256",
                    "name": "maxParticipants",
                    "type": "uint256"
                },
                {
                    "internalType": "uint256",
                    "name": "registeredParticipants",
                    "type": "uint256"
                },
                {
                    "internalType": "uint256",
                    "name": "startTime",
                    "type": "uint256"
                },
                {
                    "internalType": "uint256",
                    "name": "currentRound",
                    "type": "uint256"
                },
                {
                    "internalType": "uint256",
                    "name": "totalRounds",
                    "type": "uint256"
                },
                {
                    "internalType": "address",
                    "name": "winner",
                    "type": "address"
                },
                {
                    "internalType": "enum TournamentContract.TournamentStatus",
                    "name": "status",
                    "type": "uint8"
                },
                {
                    "internalType": "uint256",
                    "name": "totalPrize",
                    "type": "uint256"
                }
            ],
            "stateMutability": "view",
            "type": "function"
        },
        {
            "stateMutability": "payable",
            "type": "receive"
        }
    ],
    "bytecode": "0x608080604052346100fc57602081611b3b803803809161001f8285610101565b8339810103126100fc57516001600160a01b038116908190036100fc57600280546001600160a01b0319168217905560405163c8db44e360e01b815290602090829060049082905afa9081156100f0576000916100a7575b50600380546001600160a01b0319166001600160a01b0392909216919091179055604051611a00908161013b8239f35b6020813d6020116100e8575b816100c060209383610101565b810103126100e45751906001600160a01b03821682036100e1575038610077565b80fd5b5080fd5b3d91506100b3565b6040513d6000823e3d90fd5b600080fd5b601f909101601f19168101906001600160401b0382119082101761012457604052565b634e487b7160e01b600052604160045260246000fdfe6080604052600436101561001b575b361561001957600080fd5b005b6000803560e01c8063216655e21461130957806332432233146111ee578063334f7deb14610eae578063651ea94314610cee5780636e2b2c7c14610cd05780637503e1b714610bfa578063b78ae7e014610bc2578063ba83a7d614610588578063c2a8b11b1461054b578063c45a015514610522578063c8db44e3146104f95763fd65463c146100ab575061000e565b346104f65760a03660031901126104f65760043567ffffffffffffffff81116104f4576100dc90369060040161159a565b60243567ffffffffffffffff81116104f0576100fc90369060040161159a565b9060443560643560843593600482148080156104e6575b80156104dc575b1561048957428611156104455760015495868852876020526040882092865167ffffffffffffffff8111610431576101528554611425565b601f81116103ec575b50806020601f8211600114610389578b9161037e575b508160011b916000199060031b1c19161784555b8051600185019167ffffffffffffffff821161036a576101a58354611425565b601f8111610325575b506020908b601f841160011461029657927ff921e1476612bff3a21b96b63ae8a3ac03579129aad3ed13624285327365837c9a98969492819261025a9b9997959261028b575b50508160011b916000199060031b1c19161790555b60028301859055600383018490556005830155600e8201805460ff60a01b191690551561026b57600d60029101555b61024360015461165a565b6001556040519384936060855260608501906113c1565b91602084015260408301520390a280f35b6008820361027f57600d6003910155610238565b600d6004910155610238565b0151905038806101f4565b50838c52818c209190601f1984168d5b81811061030d575092600192859261025a9c9a98967ff921e1476612bff3a21b96b63ae8a3ac03579129aad3ed13624285327365837c9e9c9a9896106102f4575b505050811b019055610209565b015160001960f88460031b161c191690553880806102e7565b929360206001819287860151815501950193016102a6565b838c5260208c20601f840160051c81019160208510610360575b601f0160051c01905b81811061035557506101ae565b8c8155600101610348565b909150819061033f565b634e487b7160e01b8b52604160045260248bfd5b905088015138610171565b868c52808c209150601f1983168c5b8b8282106103d457505090836001949392106103bb575b5050811b018455610185565b8a015160001960f88460031b161c1916905538806103af565b60018495602093958493015181550194019201610398565b858b5260208b20601f830160051c81019160208410610427575b601f0160051c01905b81811061041c575061015b565b8b815560010161040f565b9091508190610406565b634e487b7160e01b8a52604160045260248afd5b606460405162461bcd60e51b815260206004820152602060248201527f53746172742074696d65206d75737420626520696e20746865206675747572656044820152fd5b60405162461bcd60e51b815260206004820152602560248201527f5061727469636970616e7420636f756e74206d75737420626520342c20382c2060448201526437b910189b60d91b6064820152608490fd5b506010831461011a565b5060088314610113565b8280fd5b505b80fd5b50346104f657806003193601126104f6576003546040516001600160a01b039091168152602090f35b50346104f657806003193601126104f6576002546040516001600160a01b039091168152602090f35b50346104f65760203660031901126104f6576105786006604061058493600435815280602052200161168c565b6040519182918261153b565b0390f35b50346104f65760803660031901126104f657606435906004356044356024356001600160a01b0385168503610bbe576040946105f886516105c9888261145f565b601a81527f5265706f7274206d6174636820726573756c742063616c6c656400000000000060208201526116e0565b610621818751610608898261145f565b60078152662bb4b73732b91d60c91b6020820152611733565b83855284602052858520926103e883028381046103e81484151715610baa578161064a9161167f565b80875260078501602081905288882054919390916001600160a01b03163303610b6657908692916106886009880191878b52826020528b8b20611614565b8589526020526106d0898920548a516106a18c8261145f565b601e81527f41646465642077696e6e657220746f20726f756e642077696e6e6572733a00006020820152611782565b600b860193858952846020528989206106e9815461165a565b9055885260205286602060018060a01b038a8320541661072f818c6107108151918261145f565b600e81526d26b0ba31b41020b2323932b9b99d60911b85820152611733565b60048b5180948193633016c04960e21b83525af1889181610b2a575b50610abd575050503d600014610ab8573d6107658161157e565b906107728851928361145f565b81528560203d92013e5b6107ba865161078b888261145f565b601781527f4661696c656420746f20636f6c6c6563742066756e647300000000000000000060208201526116e0565b818552806020526107f88686205487516107d4898261145f565b601281527121b7b6b83632ba32b21036b0ba31b432b99d60711b6020820152611782565b600a8301908286528160205261083a8787205488516108178a8261145f565b60118152702932b8bab4b932b21036b0ba31b432b99d60791b6020820152611782565b82865260205285852054908286526020528585205414610858578380f35b80845260088201602052848420600160ff19825416179055827f867bc48474afbd71c32542f493801861b7fa916f53f0e706e1bb8a3f47709c2860208751848152a2600d82015403610a2357508082528160205282822092600d840154835260098401602052808320805415610a0f5783526020832054600e850180546001600160a81b0319166001600160a01b0392909216918217600160a11b179055838080804785828215610a06575bf1156109fc57600485015460011c600a0180600a116109e8576003546001600160a01b031690813b156109e4578591606483928651948593849263af8c524760e01b845288600485015260248401528160448401525af180156109da576109a3575b50600f7f56dcac6fc26cdc8d27ba5d89b6ee19d4060393f6137f25cc1859b1596384140c939495015482519182526020820152a25b803880808380f35b846109d27f56dcac6fc26cdc8d27ba5d89b6ee19d4060393f6137f25cc1859b1596384140c9596600f9361145f565b949350610966565b83513d87823e3d90fd5b8580fd5b634e487b7160e01b85526011600452602485fd5b81513d85823e3d90fd5b506108fc610904565b634e487b7160e01b84526032600452602484fd5b600c909392930191610a35835461165a565b8093558184528360205280842090827f278844837bcf8364a705384bf3a2812901f54155bae86dea81dd52aa5b9ec0e360208351878152a260018403610a925750610a8d92506006610a87910161168c565b906117da565b61099b565b919260001981019081116109e85784526009016020528220610a8d9190610a879061168c565b61077c565b7fd913f31b68f62c9b4fbb454b827c9f7ae553b6cf2abd909b197755065e297ac591606091610b15818c610af38151918261145f565b601081526f21b7b63632b1ba32b210333ab732399d60811b6020820152611782565b8a519187835260208301528a820152a26107ba565b91509192506020813d602011610b5e575b81610b486020938361145f565b81010312610b5a57518692913861074b565b8780fd5b3d9150610b3b565b885162461bcd60e51b815260206004820152601e60248201527f4f6e6c79206d6174636820636f6e74726163742063616e207265706f727400006044820152606490fd5b634e487b7160e01b87526011600452602487fd5b8380fd5b50346104f65760403660031901126104f65761057860406105849260043581528060205260098282200160243582526020522061168c565b50346104f65760203660031901126104f65760409060043581528060205220610160610c2582611497565b91610c3260018201611497565b610cc6600283015492600381015460048201546005830154600c84015491600d85015493610c87600f600e88015497015498610c796040519d8d8f9e8f90815201906113c1565b8c810360208e0152906113c1565b9860408b015260608a0152608089015260a088015260c087015260e086015260018060a01b03811661010086015260ff61012086019160a01c16611402565b6101408301520390f35b50346104f657806003193601126104f6576020600154604051908152f35b50346104f65760203660031901126104f657600435808252816020526040822090600e82019160ff835460a01c166004811015610e9a57610e555760058101544210610e06576004810154600382015403610da357600c600191610da0948360a01b60ff60a01b19825416179055015580835282602052610a87600660408520837f278844837bcf8364a705384bf3a2812901f54155bae86dea81dd52aa5b9ec0e3602060405160018152a20161168c565b80f35b60405162461bcd60e51b815260206004820152603560248201527f4d75737420686176652065786163746c7920746865207265717569726564206e604482015274756d626572206f66207061727469636970616e747360581b6064820152608490fd5b60405162461bcd60e51b815260206004820152602160248201527f546f75726e616d656e742073746172742074696d65206e6f74207265616368656044820152601960fa1b6064820152608490fd5b60405162461bcd60e51b815260206004820152601760248201527f43616e6e6f7420737461727420746f75726e616d656e740000000000000000006044820152606490fd5b634e487b7160e01b85526021600452602485fd5b5060203660031901126104f657600435808252816020526040822060ff600e82015460a01c1660048110156111da5761119557600581015442101561115057600481019081549060038101918254111561111657600281015434036110db576003546040516397f735d560e01b815233600482015290602090829060249082906001600160a01b03165afa9081156110d0578691611095575b5061104657600681018054865b818110610fe257505090610f6b600f923390611614565b610f75845461165a565b80945501610f8434825461167f565b9055827fc18c35a89038d83bd7af8c744ff689d68f772adf84d7774f8e415f151246694e6020604051338152a25414610fbb575080f35b7f383b6ce38b867405b4f42fa404692e07842868068badd063c9bfeb0e7f263f628280a280f35b610fec81846115e6565b905460039190911b1c6001600160a01b0316331461100c57600101610f54565b60405162461bcd60e51b8152602060048201526012602482015271105b1c9958591e481c9959da5cdd195c995960721b6044820152606490fd5b60405162461bcd60e51b815260206004820152602160248201527f42616e6e656420706c61796572732063616e6e6f7420706172746963697061746044820152606560f81b6064820152608490fd5b90506020813d6020116110c8575b816110b06020938361145f565b810103126109e4575180151581036109e45738610f47565b3d91506110a3565b6040513d88823e3d90fd5b60405162461bcd60e51b8152602060048201526013602482015272496e636f727265637420656e7472792066656560681b6044820152606490fd5b60405162461bcd60e51b8152602060048201526012602482015271151bdd5c9b985b595b9d081a5cc8199d5b1b60721b6044820152606490fd5b60405162461bcd60e51b815260206004820152601960248201527f526567697374726174696f6e20706572696f6420656e646564000000000000006044820152606490fd5b60405162461bcd60e51b815260206004820152601860248201527f526567697374726174696f6e206973206e6f74206f70656e00000000000000006044820152606490fd5b634e487b7160e01b84526021600452602484fd5b50346104f65760203660031901126104f657600435808252816020526040822090600e82019060ff825460a01c166004811015610e9a576112c457815460ff60a01b1916600360a01b179091559082906002810190600601825b815481101561129b578380808061125f85876115e6565b905488549160031b1c6001600160a01b0316828215611292575bf11561128757600101611248565b6040513d85823e3d90fd5b506108fc611279565b83857ffa61ec8d7e5a58ceba17772b10ba0c6caa65b40b200302be35f00efc264c78958280a280f35b60405162461bcd60e51b815260206004820152601f60248201527f43616e6e6f742063616e63656c2061637469766520746f75726e616d656e74006044820152606490fd5b50346104f65760203660031901126104f65760409060043581528060205220610140600282015482600381015460048201546113ac600584015460ff600e86015460a01c1690600c86015493600d8701549561138d6113786001611371600f8c01549b611497565b9d01611497565b610c796040519d8d8f9e8f90815201906113c1565b9860408b015260608a0152608089015260a088015260c0870190611402565b60e08501526101008401526101208301520390f35b919082519283825260005b8481106113ed575050826000602080949584010152601f8019910116010190565b806020809284010151828286010152016113cc565b90600482101561140f5752565b634e487b7160e01b600052602160045260246000fd5b90600182811c92168015611455575b602083101461143f57565b634e487b7160e01b600052602260045260246000fd5b91607f1691611434565b90601f8019910116810190811067ffffffffffffffff82111761148157604052565b634e487b7160e01b600052604160045260246000fd5b90604051918260008254926114ab84611425565b808452936001811690811561151957506001146114d2575b506114d09250038361145f565b565b90506000929192526020600020906000915b8183106114fd5750509060206114d092820101386114c3565b60209193508060019154838589010152019101909184926114e4565b9050602092506114d094915060ff191682840152151560051b820101386114c3565b602060408183019282815284518094520192019060005b81811061155f5750505090565b82516001600160a01b0316845260209384019390920191600101611552565b67ffffffffffffffff811161148157601f01601f191660200190565b81601f820112156115e1578035906115b18261157e565b926115bf604051948561145f565b828452602083830101116115e157816000926020809301838601378301015290565b600080fd5b80548210156115fe5760005260206000200190600090565b634e487b7160e01b600052603260045260246000fd5b80546801000000000000000081101561148157611636916001820181556115e6565b81546001600160a01b0393841660039290921b91821b9390911b1916919091179055565b60001981146116695760010190565b634e487b7160e01b600052601160045260246000fd5b9190820180921161166957565b906040519182815491828252602082019060005260206000209260005b8181106116be5750506114d09250038361145f565b84546001600160a01b03168352600194850194879450602090930192016116a9565b600061170e61171c829360405192839163104c13eb60e21b60208401526020602484015260448301906113c1565b03601f19810183528261145f565b6020815191016a636f6e736f6c652e6c6f675afa50565b61176361171c60009392849360405193849263319af33360e01b60208501526040602485015260648401906113c1565b6001600160a01b0391909116604483015203601f19810183528261145f565b6117b261171c600093928493604051938492632d839cb360e21b60208501526040602485015260648401906113c1565b90604483015203601f19810183528261145f565b80518210156115fe5760209160051b010190565b8060005260006020526040600020825160011c91600c82018054600052600a8301602052836040600020558054600052600b83016020526000604081205560006007600285019401905b8581106118345750505050505050565b8060011b81810460021482151715611669576001600160a01b03611858828a6117c6565b51169060009060018101809111611966576020906001600160a01b039061187f908c6117c6565b511660e460018060a01b036002541694848b54968a546040519889968795630b5e3a7760e21b87526004870152602486015260448501523060648501528c608485015260a48401528860c48401525af19182156119bd57819261197a575b5084546103e88102908082046103e814901517156119665783929161190660019560409361167f565b81528560205220838060a01b0382166bffffffffffffffffffffffff60a01b825416179055857f65fa593f19a0944119fc97e9b7a44258e9b1e3890e2ae7438bae33533237213a602087549360405190878060a01b03168152a301611824565b634e487b7160e01b82526011600452602482fd5b9091506020813d82116119b5575b816119956020938361145f565b810103126104f457516001600160a01b03811681036104f45790386118dd565b3d9150611988565b50604051903d90823e3d90fdfea2646970667358221220ffc96abdd49ac0b3877ac4635b5ccd541b0ae7acc721c6f15e89c7dbe9db667d64736f6c634300081c0033",
    "linkReferences": {},
    "deployedLinkReferences": {}
}