{
  "_format": "hh-sol-artifact-1",
  "contractName": "MatchContract",
  "sourceName": "contracts/MatchContract.sol",
  "abi": [
    {
      "inputs": [
        {
          "internalType": "address",
          "name": "_factory",
          "type": "address"
        },
        {
          "internalType": "address",
          "name": "_registry",
          "type": "address"
        }
      ],
      "stateMutability": "nonpayable",
      "type": "constructor"
    },
    {
      "anonymous": false,
      "inputs": [],
      "name": "DisputeInitiated",
      "type": "event"
    },
    {
      "anonymous": false,
      "inputs": [
        {
          "indexed": true,
          "internalType": "address",
          "name": "juror",
          "type": "address"
        },
        {
          "indexed": false,
          "internalType": "uint256",
          "name": "vote",
          "type": "uint256"
        }
      ],
      "name": "JuryVoted",
      "type": "event"
    },
    {
      "anonymous": false,
      "inputs": [
        {
          "indexed": false,
          "internalType": "address",
          "name": "player1",
          "type": "address"
        },
        {
          "indexed": false,
          "internalType": "address",
          "name": "player2",
          "type": "address"
        }
      ],
      "name": "MatchCreated",
      "type": "event"
    },
    {
      "anonymous": false,
      "inputs": [
        {
          "indexed": true,
          "internalType": "address",
          "name": "winner",
          "type": "address"
        }
      ],
      "name": "MatchResolved",
      "type": "event"
    },
    {
      "anonymous": false,
      "inputs": [
        {
          "indexed": true,
          "internalType": "address",
          "name": "player",
          "type": "address"
        }
      ],
      "name": "PlayerJoined",
      "type": "event"
    },
    {
      "anonymous": false,
      "inputs": [
        {
          "indexed": false,
          "internalType": "address",
          "name": "player",
          "type": "address"
        }
      ],
      "name": "ResultCommitted",
      "type": "event"
    },
    {
      "anonymous": false,
      "inputs": [
        {
          "indexed": false,
          "internalType": "address",
          "name": "player",
          "type": "address"
        },
        {
          "indexed": false,
          "internalType": "string",
          "name": "result",
          "type": "string"
        }
      ],
      "name": "ResultRevealed",
      "type": "event"
    },
    {
      "inputs": [],
      "name": "JURY_REWARD",
      "outputs": [
        {
          "internalType": "uint256",
          "name": "",
          "type": "uint256"
        }
      ],
      "stateMutability": "view",
      "type": "function"
    },
    {
      "inputs": [],
      "name": "JURY_STAKE",
      "outputs": [
        {
          "internalType": "uint256",
          "name": "",
          "type": "uint256"
        }
      ],
      "stateMutability": "view",
      "type": "function"
    },
    {
      "inputs": [],
      "name": "REP_JURY_VOTE",
      "outputs": [
        {
          "internalType": "int256",
          "name": "",
          "type": "int256"
        }
      ],
      "stateMutability": "view",
      "type": "function"
    },
    {
      "inputs": [],
      "name": "REP_LIED",
      "outputs": [
        {
          "internalType": "int256",
          "name": "",
          "type": "int256"
        }
      ],
      "stateMutability": "view",
      "type": "function"
    },
    {
      "inputs": [],
      "name": "REP_NO_REVEAL",
      "outputs": [
        {
          "internalType": "int256",
          "name": "",
          "type": "int256"
        }
      ],
      "stateMutability": "view",
      "type": "function"
    },
    {
      "inputs": [],
      "name": "REP_TRUTHFUL",
      "outputs": [
        {
          "internalType": "int256",
          "name": "",
          "type": "int256"
        }
      ],
      "stateMutability": "view",
      "type": "function"
    },
    {
      "inputs": [],
      "name": "REP_WIN",
      "outputs": [
        {
          "internalType": "int256",
          "name": "",
          "type": "int256"
        }
      ],
      "stateMutability": "view",
      "type": "function"
    },
    {
      "inputs": [],
      "name": "REVEAL_PERIOD",
      "outputs": [
        {
          "internalType": "uint256",
          "name": "",
          "type": "uint256"
        }
      ],
      "stateMutability": "view",
      "type": "function"
    },
    {
      "inputs": [],
      "name": "collectTournamentFunds",
      "outputs": [
        {
          "internalType": "uint256",
          "name": "",
          "type": "uint256"
        }
      ],
      "stateMutability": "nonpayable",
      "type": "function"
    },
    {
      "inputs": [
        {
          "internalType": "bytes32",
          "name": "salt",
          "type": "bytes32"
        },
        {
          "internalType": "bool",
          "name": "didIWin",
          "type": "bool"
        }
      ],
      "name": "commitAndRevealResult",
      "outputs": [],
      "stateMutability": "payable",
      "type": "function"
    },
    {
      "inputs": [
        {
          "internalType": "bytes32",
          "name": "hashedCommitment",
          "type": "bytes32"
        }
      ],
      "name": "commitResult",
      "outputs": [],
      "stateMutability": "payable",
      "type": "function"
    },
    {
      "inputs": [],
      "name": "creator",
      "outputs": [
        {
          "internalType": "address",
          "name": "",
          "type": "address"
        }
      ],
      "stateMutability": "view",
      "type": "function"
    },
    {
      "inputs": [],
      "name": "currentMatch",
      "outputs": [
        {
          "internalType": "address",
          "name": "player1",
          "type": "address"
        },
        {
          "internalType": "address",
          "name": "player2",
          "type": "address"
        },
        {
          "internalType": "address",
          "name": "winner",
          "type": "address"
        },
        {
          "internalType": "bytes32",
          "name": "player1Commit",
          "type": "bytes32"
        },
        {
          "internalType": "bytes32",
          "name": "player2Commit",
          "type": "bytes32"
        },
        {
          "internalType": "bool",
          "name": "player1Joined",
          "type": "bool"
        },
        {
          "internalType": "bool",
          "name": "player2Joined",
          "type": "bool"
        },
        {
          "internalType": "string",
          "name": "player1Result",
          "type": "string"
        },
        {
          "internalType": "string",
          "name": "player2Result",
          "type": "string"
        },
        {
          "internalType": "bytes32",
          "name": "player1Salt",
          "type": "bytes32"
        },
        {
          "internalType": "bytes32",
          "name": "player2Salt",
          "type": "bytes32"
        },
        {
          "internalType": "uint256",
          "name": "entryFee",
          "type": "uint256"
        },
        {
          "internalType": "uint256",
          "name": "revealDeadline",
          "type": "uint256"
        }
      ],
      "stateMutability": "view",
      "type": "function"
    },
    {
      "inputs": [],
      "name": "factory",
      "outputs": [
        {
          "internalType": "address",
          "name": "",
          "type": "address"
        }
      ],
      "stateMutability": "view",
      "type": "function"
    },
    {
      "inputs": [],
      "name": "getEntryFee",
      "outputs": [
        {
          "internalType": "uint256",
          "name": "",
          "type": "uint256"
        }
      ],
      "stateMutability": "view",
      "type": "function"
    },
    {
      "inputs": [],
      "name": "getJuryCount",
      "outputs": [
        {
          "internalType": "uint256",
          "name": "",
          "type": "uint256"
        }
      ],
      "stateMutability": "view",
      "type": "function"
    },
    {
      "inputs": [],
      "name": "getMatchDetails",
      "outputs": [
        {
          "internalType": "address",
          "name": "player1",
          "type": "address"
        },
        {
          "internalType": "address",
          "name": "player2",
          "type": "address"
        },
        {
          "internalType": "address",
          "name": "winner",
          "type": "address"
        },
        {
          "internalType": "enum MatchContract.MatchStatus",
          "name": "matchStatus",
          "type": "uint8"
        },
        {
          "internalType": "uint256",
          "name": "matchRound",
          "type": "uint256"
        },
        {
          "internalType": "uint256",
          "name": "matchIdx",
          "type": "uint256"
        },
        {
          "internalType": "bool",
          "name": "player1Joined",
          "type": "bool"
        },
        {
          "internalType": "bool",
          "name": "player2Joined",
          "type": "bool"
        },
        {
          "internalType": "uint256",
          "name": "juryCount",
          "type": "uint256"
        }
      ],
      "stateMutability": "view",
      "type": "function"
    },
    {
      "inputs": [],
      "name": "getMatchStatus",
      "outputs": [
        {
          "internalType": "enum MatchContract.MatchStatus",
          "name": "",
          "type": "uint8"
        }
      ],
      "stateMutability": "view",
      "type": "function"
    },
    {
      "inputs": [],
      "name": "getPlayers",
      "outputs": [
        {
          "internalType": "address",
          "name": "player1",
          "type": "address"
        },
        {
          "internalType": "address",
          "name": "player2",
          "type": "address"
        }
      ],
      "stateMutability": "view",
      "type": "function"
    },
    {
      "inputs": [],
      "name": "getWinner",
      "outputs": [
        {
          "internalType": "address",
          "name": "",
          "type": "address"
        }
      ],
      "stateMutability": "view",
      "type": "function"
    },
    {
      "inputs": [],
      "name": "havePlayersJoined",
      "outputs": [
        {
          "internalType": "bool",
          "name": "player1Joined",
          "type": "bool"
        },
        {
          "internalType": "bool",
          "name": "player2Joined",
          "type": "bool"
        }
      ],
      "stateMutability": "view",
      "type": "function"
    },
    {
      "inputs": [
        {
          "internalType": "address",
          "name": "_creator",
          "type": "address"
        },
        {
          "internalType": "address",
          "name": "_player1",
          "type": "address"
        },
        {
          "internalType": "address",
          "name": "_player2",
          "type": "address"
        },
        {
          "internalType": "uint256",
          "name": "_entryFee",
          "type": "uint256"
        },
        {
          "internalType": "address",
          "name": "_tournamentContract",
          "type": "address"
        },
        {
          "internalType": "uint256",
          "name": "_tournamentId",
          "type": "uint256"
        },
        {
          "internalType": "uint256",
          "name": "_roundNumber",
          "type": "uint256"
        },
        {
          "internalType": "uint256",
          "name": "_matchIndex",
          "type": "uint256"
        }
      ],
      "name": "initialize",
      "outputs": [],
      "stateMutability": "nonpayable",
      "type": "function"
    },
    {
      "inputs": [],
      "name": "initialized",
      "outputs": [
        {
          "internalType": "bool",
          "name": "",
          "type": "bool"
        }
      ],
      "stateMutability": "view",
      "type": "function"
    },
    {
      "inputs": [],
      "name": "isTournamentMatch",
      "outputs": [
        {
          "internalType": "bool",
          "name": "",
          "type": "bool"
        }
      ],
      "stateMutability": "view",
      "type": "function"
    },
    {
      "inputs": [],
      "name": "joinJury",
      "outputs": [],
      "stateMutability": "payable",
      "type": "function"
    },
    {
      "inputs": [
        {
          "internalType": "uint256",
          "name": "vote",
          "type": "uint256"
        }
      ],
      "name": "joinJuryAndVote",
      "outputs": [],
      "stateMutability": "payable",
      "type": "function"
    },
    {
      "inputs": [],
      "name": "joinMatch",
      "outputs": [],
      "stateMutability": "payable",
      "type": "function"
    },
    {
      "inputs": [],
      "name": "matchIndex",
      "outputs": [
        {
          "internalType": "uint256",
          "name": "",
          "type": "uint256"
        }
      ],
      "stateMutability": "view",
      "type": "function"
    },
    {
      "inputs": [
        {
          "internalType": "address",
          "name": "",
          "type": "address"
        }
      ],
      "name": "players",
      "outputs": [
        {
          "internalType": "int256",
          "name": "reputation",
          "type": "int256"
        },
        {
          "internalType": "uint256",
          "name": "totalMatches",
          "type": "uint256"
        },
        {
          "internalType": "bool",
          "name": "isBanned",
          "type": "bool"
        }
      ],
      "stateMutability": "view",
      "type": "function"
    },
    {
      "inputs": [],
      "name": "reputationRegistry",
      "outputs": [
        {
          "internalType": "contract ReputationRegistry",
          "name": "",
          "type": "address"
        }
      ],
      "stateMutability": "view",
      "type": "function"
    },
    {
      "inputs": [
        {
          "internalType": "bytes32",
          "name": "salt",
          "type": "bytes32"
        },
        {
          "internalType": "bool",
          "name": "result",
          "type": "bool"
        }
      ],
      "name": "revealResult",
      "outputs": [],
      "stateMutability": "nonpayable",
      "type": "function"
    },
    {
      "inputs": [],
      "name": "roundNumber",
      "outputs": [
        {
          "internalType": "uint256",
          "name": "",
          "type": "uint256"
        }
      ],
      "stateMutability": "view",
      "type": "function"
    },
    {
      "inputs": [],
      "name": "status",
      "outputs": [
        {
          "internalType": "enum MatchContract.MatchStatus",
          "name": "",
          "type": "uint8"
        }
      ],
      "stateMutability": "view",
      "type": "function"
    },
    {
      "inputs": [],
      "name": "tournamentContract",
      "outputs": [
        {
          "internalType": "address",
          "name": "",
          "type": "address"
        }
      ],
      "stateMutability": "view",
      "type": "function"
    },
    {
      "inputs": [],
      "name": "tournamentId",
      "outputs": [
        {
          "internalType": "uint256",
          "name": "",
          "type": "uint256"
        }
      ],
      "stateMutability": "view",
      "type": "function"
    },
    {
      "inputs": [
        {
          "internalType": "uint256",
          "name": "vote",
          "type": "uint256"
        }
      ],
      "name": "voteAsJuror",
      "outputs": [],
      "stateMutability": "nonpayable",
      "type": "function"
    }
  ],
  "bytecode": "0x60c034620000bf57601f62002df238819003918201601f19168301916001600160401b03831184841017620000c4578084926040948552833981010312620000bf576200005a60206200005283620000da565b9201620000da565b6080919091526001600160a01b031660a052604051612d029081620000f0823960805181610b74015260a051818181610b3001528181610e5c01528181610f960152818161164601528181611c6301528181611d700152818161255c01526129180152f35b600080fd5b634e487b7160e01b600052604160045260246000fd5b51906001600160a01b0382168203620000bf5756fe60406080815260048036101561001457600080fd5b600091823560e01c806302c0cdc414611eac57806302d05d3f14611e8457806302edf4b414611e685780630ac2c4c314611e4c5780630ee67e9014611bef578063158ef93e14611bca578063175c55f914611bac578063200d2ed21461041057806327a6917614611b895780632c70444e146119875780634e2786fb146119685780636be6258b146119465780638b227ff4146119295780638b5b9ccc146118f55780638e7ea5b2146118cc57806397427cd2146115ee578063a4785d14146115d1578063ad18f0da1461139d578063aeebaf1b14610f2e578063bd18f44c14610e36578063c05b012414610bc1578063c3529f3114610ba3578063c45a015514610b5f578063c8db44e314610b1b578063d9229a3a14610a93578063da03fef614610a6f578063dda68b9d146104cc578063e0aff415146104b0578063e2eb41ff1461045b578063e586a4f01461043c578063e8779bf114610410578063e8d3c1f4146103f1578063e97b3489146103bf578063f809ab43146103a0578063fbeb89dd146103735763fc04b787146101ac57600080fd5b3461036f576020908160031936011261036b5782359060ff60055460081c16936005851015610358576101e260038096146123dd565b8586601154905b818110610320575b5050156102f15750338552601291828452808287205581519081527fba16d6c69d9501b1e025427f587bcf0a2a79e55b9f669d95965c4e7692d08bda843392a26011549184831015610241578580f35b8594859485949392915b848610610293575050505050501160001461027e57600654610275906001600160a01b03166128cb565b38808080808580f35b600754610275906001600160a01b03166128cb565b9091929394956102a28761241d565b905490831b1c6001600160a01b03168952838352848920546001036102dd576102cd6102d3916124ac565b966124ac565b949392919061024b565b95966102eb6102d3916124ac565b976124ac565b83606492519162461bcd60e51b8352820152600b60248201526a2737ba103090353ab937b960a91b6044820152fd5b6103298161241d565b905490891b1c6001600160a01b0316331461034c57610347906124ac565b6101e9565b505050600138806101f1565b634e487b7160e01b865260219052602485fd5b8380fd5b8280fd5b83823461039c578160031936011261039c5760015490516001600160a01b039091168152602090f35b5080fd5b83823461039c578160031936011261039c576020906002549051908152f35b5082346103ee57806003193601126103ee5750600b5460ff8251918181161515835260081c1615156020820152f35b80fd5b83823461039c578160031936011261039c576020906011549051908152f35b83823461039c578160031936011261039c5760209061043a60ff60055460081c1691518092611fae565bf35b83823461039c578160031936011261039c576020906010549051908152f35b83823461039c57602036600319011261039c5760609181906001600160a01b036104836120cf565b1681526014602052209081549160ff60026001830154920154169082519384526020840152151590820152f35b83823461039c578160031936011261039c5760209051600f8152f35b503461036f576104db366120ea565b9260018060a01b03938460065416331492838015610a62575b6104fd90612120565b60059260ff845460081c1684811015610a4f57600203610a165760135442116109db57855194602095868101906d092bee4cae0dee4e8bee8e4eae8d60931b825284602e820152602e815261055181612035565b51902090156108725761056790600954146121ae565b8215610865576105756121eb565b80519167ffffffffffffffff831161085257508190610595600c54611fd1565b601f811161080e575b508690601f831160011461079d578a92610792575b50508160011b916000199060031b1c191617600c555b600e556105fc84516105da81612051565b6011815270141b185e595c880c481c995d99585b1959607a1b85820152612be6565b1561077357600080516020612cad83398151915261062761061b6121eb565b85519182913383612239565b0390a1610656835161063881612051565b600d81526c109bdd1a081c995d99585b1959609a1b84820152612be6565b600e54151580610768575b610669578480f35b825190828201826106798261225e565b039261068d601f199485810183528261206d565b5190208451848101906106af816106a3846122db565b0386810183528261206d565b5190200361072d575082516106d783820192826106cb856122db565b0390810183528261206d565b5190209151908101906a383630bcb2b9192fbbb7b760a91b8252600b81526106fe81612051565b5190200361071b576107139060075416612511565b388080808480f35b6107289060065416612511565b610713565b935050505061030061ff00198254161790557f621fa206498e1fb6f62fd603046d8a282e70e3fcdb4372bcfda0df1ea9b0a5478180a1610713565b50600f541515610661565b600080516020612cad83398151915261062761078d612212565b61061b565b0151905038806105b3565b600c8b52600080516020612c6d8339815191529250601f1984168b5b898282106107f85750509084600195949392106107df575b505050811b01600c556105c9565b015160001960f88460031b161c191690553880806107d1565b60018596829396860151815501950193016107b9565b61084290600c8c52600080516020612c6d833981519152601f8501891c8101918a8610610848575b601f01891c0190612109565b3861059e565b9091508190610836565b634e487b7160e01b8a5260419052602489fd5b61086d612212565b610575565b61087f90600a54146121ae565b82156109ce5761088d612212565b80519167ffffffffffffffff8311610852575081906108ad600d54611fd1565b601f8111610995575b508690601f8311600114610924578a92610919575b50508160011b916000199060031b1c191617600d555b600f5561091484516108f281612051565b6011815270141b185e595c880c881c995d99585b1959607a1b85820152612be6565b6105fc565b0151905038806108cb565b600d8b52600080516020612c8d8339815191529250601f1984168b5b8982821061097f575050908460019594939210610966575b505050811b01600d556108e1565b015160001960f88460031b161c19169055388080610958565b6001859682939686015181550195019301610940565b6109c890600d8c52600080516020612c8d833981519152601f8501891c8101918a861061084857601f01891c0190612109565b386108b6565b6109d66121eb565b61088d565b606490602087519162461bcd60e51b8352820152601560248201527414995d99585b081c195c9a5bd908195e1c1a5c9959605a1b6044820152fd5b606490602087519162461bcd60e51b835282015260136024820152724e6f7420696e2072657665616c20706861736560681b6044820152fd5b634e487b7160e01b895260218252602489fd5b50600754861633146104f4565b83823461039c578160031936011261039c5760209060ff6005541690519015158152f35b503461036f578260031936011261036f57610120925060ff60018060a01b03918260065416938360075416936008541690610af48460055460081c16600354925493600b54956011549881519a8b5260208b01528901526060880190611fae565b608086015260a0850152818116151560c085015260081c16151560e0830152610100820152f35b83823461039c578160031936011261039c57517f00000000000000000000000000000000000000000000000000000000000000006001600160a01b03168152602090f35b83823461039c578160031936011261039c57517f00000000000000000000000000000000000000000000000000000000000000006001600160a01b03168152602090f35b83823461039c578160031936011261039c57602090516202a3008152f35b5082903461039c578160031936011261039c576001546001600160a01b03169233849003610dea5760055460ff8160081c166005811015610dd7578203610d9e5760ff1615610d63574792825194610c1886612051565b60118652610c41856020977002932b6b0b4b734b73390233ab732399d1607d1b89820152612c27565b81808551610c4e81612051565b601581527402a37bab93730b6b2b73a1031b7b73a3930b1ba1d1605d1b898201528651610caa81610c968c82019463319af33360e01b86528b6024840152606483019061208f565b87604483015203601f19810183528261206d565b51906a636f6e736f6c652e6c6f675afa508480610d12575b50505050610d0c8151610cd481612035565b602281527f5472616e7366657272656420746f20746f75726e616d656e7420636f6e747261858201526118dd60f21b83820152612be6565b51908152f35b8280929181925af1610d226124d1565b5015610d3057808084610cc2565b83606492519162461bcd60e51b8352820152600f60248201526e151c985b9cd9995c8819985a5b1959608a1b6044820152fd5b6020606492519162461bcd60e51b8352820152601660248201527509cdee840c240e8deeae4dcc2dacadce840dac2e8c6d60531b6044820152fd5b506020606492519162461bcd60e51b8352820152601360248201527213585d18da081b9bdd0818dbdb5c1b195d1959606a1b6044820152fd5b634e487b7160e01b855260218352602485fd5b6020608492519162461bcd60e51b8352820152602160248201527f4f6e6c7920746f75726e616d656e742063616e20636f6c6c6563742066756e646044820152607360f81b6064820152fd5b50908260031936011261036f5781516397f735d560e01b815233828201526020816024817f00000000000000000000000000000000000000000000000000000000000000006001600160a01b03165afa908115610f2157610ea19293508491610ef3575b501561235d565b610eb467016345785d8a0000341461239a565b60ff60055460081c16906005821015610ee057506003610ed491146123dd565b610edd3361246a565b80f35b634e487b7160e01b835260219052602482fd5b610f14915060203d8111610f1a575b610f0c818361206d565b810190612345565b38610e9a565b503d610f02565b50505051903d90823e3d90fd5b50610f38366120ea565b60018060a01b03938460065416331492838015611390575b610f5990612120565b60059260ff845460081c16918483101561137d57610f7a600180941461216c565b8651630c2eb40360e01b815233858201526020969087816024817f00000000000000000000000000000000000000000000000000000000000000008e165afa908115611373578b91611342575b503403611306578751878101906d092bee4cae0dee4e8bee8e4eae8d60931b825283602e820152602e8152610ffb81612035565b51902090156111ad57600955600e551561119f576110176121eb565b915b829183519167ffffffffffffffff83116108525750611039600c54611fd1565b601f811161115b575b508593601f83116001146110d75791808092600080516020612cad833981519152966110b796958d946110cc575b50501b916000199060031b1c191617600c555b7fcc23703cd45173f69f30fe27972f3df154330563d4b4e84385f55bed07d55da1858751338152a185519182913383612239565b0390a1600e5415158061076857610669578480f35b015192503880611070565b909293601f19831691600c8b52600080516020612c6d833981519152928b5b89828210611147575050916110b795939185600080516020612cad8339815191529896941061112e575b505050811b01600c55611083565b015160001960f88460031b161c19169055388080611120565b8385015186559487019493840193016110f6565b61118f90600c8b52600080516020612c6d833981519152601f8501881c810191898610611195575b601f01881c0190612109565b38611042565b9091508190611183565b6111a7612212565b91611019565b600a55600f55156112f8576111c0612212565b915b829183519167ffffffffffffffff831161085257506111e2600d54611fd1565b601f81116112bf575b508593601f831160011461123b5791808092600080516020612cad833981519152966110b796958d94611230575b50501b916000199060031b1c191617600d55611083565b015192503880611219565b909293601f19831691600d8b52600080516020612c8d833981519152928b5b898282106112ab575050916110b795939185600080516020612cad83398151915298969410611292575b505050811b01600d55611083565b015160001960f88460031b161c19169055388080611284565b83850151865594870194938401930161125a565b6112f290600d8b52600080516020612c8d833981519152601f8501881c81019189861061119557601f01881c0190612109565b386111eb565b6113006121eb565b916111c2565b875162461bcd60e51b81528086018890526016602482015275125b98dbdc9c9958dd081cdd185ad948185b5bdd5b9d60521b6044820152606490fd5b90508781813d831161136c575b611359818361206d565b81010312611368575138610fc7565b8a80fd5b503d61134f565b89513d8d823e3d90fd5b634e487b7160e01b895260218452602489fd5b5060075486163314610f50565b50903461036f5761010036600319011261036f576113b96120cf565b6024356001600160a01b038181169491939192908585036115cd5760443595818716908188036115c957608435938385168095036115c55789549060ff8260a01c1661158c576bffffffffffffffffffffffff60a01b94859116911617895582600654161760065581600754161760075580600854166008556064356010556202a30042018042116115795760135561ff00196005541660055561ffff19600b5416600b5583516020810181811067ffffffffffffffff821117611566579088918652526011548760115580611528575b50917f400084faa1d1feebd72b5492202d9905c0f245dfb43e76ca408fb6f113188e28959493916114f49360118952816114fa575b5050865460ff60a01b1916600160a01b17875550516001600160a01b0392831681529190921660208201529081906040820190565b0390a180f35b600154161760015560a43560025560c43560035560e4359055600160ff1960055416176005553880806114bf565b7f31ecc21a745e3968a04e9570e4425bc18fa8019c68028196b546d1669c200c68908101905b81811061155b575061148a565b88815560010161154e565b634e487b7160e01b895260418552602489fd5b634e487b7160e01b885260118452602488fd5b875162461bcd60e51b81526020818901526013602482015272105b1c9958591e481a5b9a5d1a585b1a5e9959606a1b6044820152606490fd5b8980fd5b8880fd5b8680fd5b83823461039c578160031936011261039c57516018198152602090f35b5091906020928360031936011261036f5781359160ff60055460081c169160058310156118b95761162260038094146123dd565b80516397f735d560e01b815233838201526001600160a01b039490602490888183817f00000000000000000000000000000000000000000000000000000000000000008b165afa9081156118af579061168291899161189857501561235d565b61169567016345785d8a0000341461239a565b600193848314801561188e575b156118355760115491885b8381106117dc57505050506116c13361246a565b338652601290818852808388205582519081527fba16d6c69d9501b1e025427f587bcf0a2a79e55b9f669d95965c4e7692d08bda883392a26011549684881015611709578680f35b939291908694879488945b8a861061175f575097985061173c9750505050818311159050611747575050600654166128cb565b803880808080808680f35b111561175657600754166128cb565b600654166128cb565b9091929394968861176f8961241d565b905490851b1c168a52848452858a2054820361179b576102eb611791916124ac565b9493929190611714565b96886117a68261241d565b905490851b1c168a528484526002868b2054146117c7575b611791906124ac565b956117d4611791916124ac565b9690506117be565b886117e68261241d565b9054908a1b1c163314611801576117fc906124ac565b6116ad565b855162461bcd60e51b81528084018c9052600f818401526e20b63932b0b23c903090353ab937b960891b6044820152606490fd5b60306084928a86519362461bcd60e51b85528401528201527f496e76616c696420766f74653a206d75737420626520312028706c617965723160448201526f29206f7220322028706c61796572322960801b6064820152fd5b50600283146116a2565b610f1491508a3d8c11610f1a57610f0c818361206d565b84513d8a823e3d90fd5b634e487b7160e01b855260218252602485fd5b83823461039c578160031936011261039c5760085490516001600160a01b039091168152602090f35b5082346103ee57806003193601126103ee575060065460075491516001600160a01b03918216815291166020820152604090f35b83823461039c578160031936011261039c57516031198152602090f35b83823461039c578160031936011261039c576020905166b1a2bc2ec500008152f35b83823461039c578160031936011261039c576020906003549051908152f35b83823461039c578160031936011261039c5760018060a01b039182600654169183600754169360085416600954600a5493600b5484519082600c5493836119cd86611fd1565b918282526001968781169081600014611b6a5750600114611b1e575b6119f59250038461206d565b86519381859291600d5491611a0983611fd1565b80865292828116908115611afe5750600114611ab2575b50505003611a2e908461206d565b600e5496600f5494601054966013549880519c8d9c8d5260208d01528b015260608a0152608089015260ff8116151560a089015260081c60ff16151560c08801526101a08060e08901528701611a839161208f565b868103610100880152611a959161208f565b936101208601526101408501526101608401526101808301520390f35b91939250600d8252600080516020612c8d8339815191525b848310611ae357505081602092935001018b8080611a20565b81935090816020925483858b01015201910190918692611aca565b925050506020925060ff191682840152151560051b8201018b8080611a20565b50600c835290829086600080516020612c6d8339815191525b828410611b50575050509060206119f5928201016119e9565b6020929450805483858a0101520191019091868693611b37565b602092506119f594915060ff191682840152151560051b8201016119e9565b83823461039c578160031936011261039c576020905167016345785d8a00008152f35b50903461036f578260031936011261036f5760209250549051908152f35b83823461039c578160031936011261039c5760ff6020925460a01c1690519015158152f35b509060208060031936011261036b57600654823593906001600160a01b039081163314808015611e3f575b611c2390612120565b60ff60055460081c166005811015611e2c57918491611c4660016024951461216c565b15611d58578351630c2eb40360e01b8152338782015292839182907f0000000000000000000000000000000000000000000000000000000000000000165afa908115611d4e578691611d1d575b503403611cd0575050506009555b600954151580611cc5575b611cb35780f35b61020061ff0019600554161760055580f35b50600a541515611cac565b5162461bcd60e51b815291820152602360248201527f496e636f7272656374207374616b6520616d6f756e7420666f7220706c61796560448201526272203160e81b606482015260849150fd5b90508281813d8311611d47575b611d34818361206d565b81010312611d43575138611c93565b8580fd5b503d611d2a565b82513d88823e3d90fd5b8351630c2eb40360e01b8152338782015292839182907f0000000000000000000000000000000000000000000000000000000000000000165afa908115611d4e578691611dff575b503403611db257505050600a55611ca1565b5162461bcd60e51b815291820152602360248201527f496e636f7272656374207374616b6520616d6f756e7420666f7220706c61796560448201526239101960e91b606482015260849150fd5b90508281813d8311611e25575b611e16818361206d565b81010312611d43575138611da0565b503d611e0c565b634e487b7160e01b885260218652602488fd5b5060075482163314611c1a565b83823461039c578160031936011261039c5760209051600a8152f35b83823461039c578160031936011261039c576020905160058152f35b83823461039c578160031936011261039c57905490516001600160a01b039091168152602090f35b50908260031936011261036f57600654336001600160a01b03918216149290611ede9084908115611fa0575b50612120565b6010543403611f6b575050337f31e760aa525306aba638a784082a013b6a1cc0a9a1789f3f22281c0453b10b1f8380a215611f5757600160ff19600b541617600b555b600b5460ff81169081611f49575b50611f375780f35b61010061ff0019600554161760055580f35b60ff915060081c1638611f2f565b61010061ff0019600b541617600b55611f21565b906020606492519162461bcd60e51b8352820152600f60248201526e57726f6e6720456e7472792046656560881b6044820152fd5b905060075416331438611ed8565b906005821015611fbb5752565b634e487b7160e01b600052602160045260246000fd5b90600182811c92168015612001575b6020831014611feb57565b634e487b7160e01b600052602260045260246000fd5b91607f1691611fe0565b67ffffffffffffffff811161201f57604052565b634e487b7160e01b600052604160045260246000fd5b6060810190811067ffffffffffffffff82111761201f57604052565b6040810190811067ffffffffffffffff82111761201f57604052565b90601f8019910116810190811067ffffffffffffffff82111761201f57604052565b919082519283825260005b8481106120bb575050826000602080949584010152601f8019910116010190565b60208183018101518483018201520161209a565b600435906001600160a01b03821682036120e557565b600080fd5b60409060031901126120e5576004359060243580151581036120e55790565b818110612114575050565b60008155600101612109565b1561212757565b60405162461bcd60e51b815260206004820152601a60248201527f4e6f74206120706c61796572206f662074686973204d617463680000000000006044820152606490fd5b1561217357565b60405162461bcd60e51b81526020600482015260136024820152724e6f7420696e20636f6d6d697420706861736560681b6044820152606490fd5b156121b557565b60405162461bcd60e51b815260206004820152600e60248201526d125b9d985b1a59081c995d99585b60921b6044820152606490fd5b604051906121f882612051565b600b82526a383630bcb2b918afbbb7b760a91b6020830152565b6040519061221f82612051565b600b82526a383630bcb2b9192fbbb7b760a91b6020830152565b6001600160a01b03909116815260406020820181905261225b9291019061208f565b90565b600c546000929161226e82611fd1565b916001908181169081156122c8575060011461228957505050565b9091929350600c600052600080516020612c6d833981519152906000915b8483106122b5575050500190565b81816020925485870152019201916122a7565b60ff191683525050811515909102019150565b600d54600092916122eb82611fd1565b916001908181169081156122c8575060011461230657505050565b9091929350600d600052600080516020612c8d833981519152906000915b848310612332575050500190565b8181602092548587015201920191612324565b908160209103126120e5575180151581036120e55790565b1561236457565b60405162461bcd60e51b815260206004820152600e60248201526d165bdd48185c994818985b9b995960921b6044820152606490fd5b156123a157565b60405162461bcd60e51b8152602060048201526014602482015273496e636f7272656374206a757279207374616b6560601b6044820152606490fd5b156123e457565b60405162461bcd60e51b81526020600482015260116024820152704e6f20616374697665206469737075746560781b6044820152606490fd5b6011548110156124545760116000527f31ecc21a745e3968a04e9570e4425bc18fa8019c68028196b546d1669c200c680190600090565b634e487b7160e01b600052603260045260246000fd5b6011546801000000000000000081101561201f5780600161248e920160115561241d565b819291549060031b9160018060a01b03809116831b921b1916179055565b60001981146124bb5760010190565b634e487b7160e01b600052601160045260246000fd5b3d1561250c573d9067ffffffffffffffff821161201f5760405191612500601f8201601f19166020018461206d565b82523d6000602084013e565b606090565b6005805461ff001916610400179055600880546001600160a01b0319166001600160a01b0383811691821790925560065490926000929182168085036128c557508160075416915b807f00000000000000000000000000000000000000000000000000000000000000001692833b156128c15760409384519063af8c524760e01b91828152886004820152600f6024820152876044820152878160648183865af180156128b7576128a4575b50803b156115cd579160648792838695895196879586948552166004840152600a60248401528160448401525af1801561289a57908591612886575b505060055460ff161561280b576002549061264882855161261981612051565b601781527f546f75726e616d656e742064657461696c733a2069643d0000000000000000006020820152612c27565b61268682855161265781612051565b601c81527f5265706f7274696e6720746f20746f75726e616d656e742e2049443a000000006020820152612c27565b6001541660035460045492823b156115cd578551635d41d3eb60e11b81526004810191909152602481019190915260448101929092526001600160a01b039290921660648201529083908290608490829084905af190816127f7575b507fe24a70990ecb8faa452b0c2734367241a6a9e50789ef324c26e59e09b0bc13329291906127f157600080916127176124d1565b8051151583146127bb576127a5612785915b61279784519161273883612051565b601983527f546f75726e616d656e74207265706f7274206661696c65643a00000000000000602084015285519485936020850197634b5c427760e01b89526024860152606485019061208f565b8381036023190160448501529061208f565b03601f19810183528261206d565b51906a636f6e736f6c652e6c6f675afa505b80a2565b506127856127a582516127cd81612051565b6012815271139bc81c99585cdbdb881c1c9bdd9a59195960721b6020820152612729565b506127b7565b612801849161200b565b61036f57386126e2565b50506010548060011b908082046002149015171561287257828080809387828215612869575bf11561285f57507fe24a70990ecb8faa452b0c2734367241a6a9e50789ef324c26e59e09b0bc1332906127b7565b51903d90823e3d90fd5b506108fc612831565b634e487b7160e01b83526011600452602483fd5b61288f9061200b565b61036b5783386125f9565b84513d87823e3d90fd5b6128b09097919761200b565b95386125bd565b87513d8a823e3d90fd5b8480fd5b91612559565b6005805461ff001916610400178155600880546001600160a01b0319166001600160a01b0384811691821790925560065460009491939192908116808503612be057508060075416905b807f00000000000000000000000000000000000000000000000000000000000000001690813b156115cd5760409384519263af8c524760e01b92838552806004961686860152602490603119828701526044988b8a8801526064968c81898183895af18015612a9d57612bcf575b50878c91848b60ff895416600014612b335760015460025460035495549251635d41d3eb60e11b60208083019182529582019283529482019690965260408101929092526001600160a01b03909316606082015284939286169284916129ed908290608001612797565b51925af16129f96124d1565b5015612ae6575b8a5b601154811015612ab557818c80808066b1a2bc2ec50000612a228761241d565b969054600397881b1c1682f115612aab578290612a3e8361241d565b9054911b1c16843b15612aa7578951908782528982015285848201528c8b8201528c81898183895af18015612a9d57908d91612a85575b5050612a80906124ac565b612a02565b612a8e9061200b565b612a99578b38612a75565b8b80fd5b8a513d8f823e3d90fd5b8c80fd5b89513d8e823e3d90fd5b50505050505050505050907fe24a70990ecb8faa452b0c2734367241a6a9e50789ef324c26e59e09b0bc13329080a2565b612b2e8851612af481612035565b8381527f4661696c656420746f207265706f7274206d6174636820746f20746f75726e616020820152631b595b9d60e21b8a820152612be6565b612a00565b50505050506010548060011b9080820460021490151715612bbd576011549066b1a2bc2ec500009180830292830403612bab5781810391818311612b99578d80938e82948394849114612b90575bf1612a005787513d8c823e3d90fd5b506108fc612b81565b634e487b7160e01b8e5260118a52848efd5b634e487b7160e01b8d5260118952838dfd5b634e487b7160e01b8c5260118852828cfd5b9b612bda899d61200b565b9b612983565b90612915565b60008091604051612c1481612797602082019463104c13eb60e21b865260206024840152604483019061208f565b51906a636f6e736f6c652e6c6f675afa50565b600091908291612c146040518092612c586020830195632d839cb360e21b875260406024850152606484019061208f565b90604483015203601f19810183528261206d56fedf6966c971051c3d54ec59162606531493a51404a002842f56009d7e5cf4a8c7d7b6990105719101dabeb77144f2a3385c8033acd3af97e9423a695e81ad1eb594fab3ba1113bc89a86444f7eaec86f02c0a085123dbfcae921465bed91a6145a26469706673582212208ca139435474d77f03555c401b2e8a74383b0662374cc8f274231e74770a001f64736f6c63430008140033",
  "linkReferences": {},
  "deployedLinkReferences": {}
}