{
  "_format": "hh-sol-artifact-1",
  "contractName": "MatchContract",
  "sourceName": "contracts/MatchContract.sol",
  "abi": [
    {
      "inputs": [
        {
          "internalType": "address",
          "name": "_factory",
          "type": "address"
        },
        {
          "internalType": "address",
          "name": "_registry",
          "type": "address"
        }
      ],
      "stateMutability": "nonpayable",
      "type": "constructor"
    },
    {
      "anonymous": false,
      "inputs": [
        {
          "indexed": true,
          "internalType": "address",
          "name": "juror",
          "type": "address"
        },
        {
          "indexed": false,
          "internalType": "uint256",
          "name": "vote",
          "type": "uint256"
        }
      ],
      "name": "JuryVoted",
      "type": "event"
    },
    {
      "anonymous": false,
      "inputs": [
        {
          "indexed": false,
          "internalType": "address",
          "name": "player1",
          "type": "address"
        },
        {
          "indexed": false,
          "internalType": "address",
          "name": "player2",
          "type": "address"
        }
      ],
      "name": "MatchCreated",
      "type": "event"
    },
    {
      "anonymous": false,
      "inputs": [
        {
          "indexed": true,
          "internalType": "address",
          "name": "winner",
          "type": "address"
        }
      ],
      "name": "MatchResolved",
      "type": "event"
    },
    {
      "anonymous": false,
      "inputs": [
        {
          "indexed": true,
          "internalType": "address",
          "name": "player",
          "type": "address"
        }
      ],
      "name": "PlayerJoined",
      "type": "event"
    },
    {
      "anonymous": false,
      "inputs": [
        {
          "indexed": false,
          "internalType": "address",
          "name": "player",
          "type": "address"
        }
      ],
      "name": "ResultCommitted",
      "type": "event"
    },
    {
      "anonymous": false,
      "inputs": [
        {
          "indexed": false,
          "internalType": "address",
          "name": "player",
          "type": "address"
        },
        {
          "indexed": false,
          "internalType": "string",
          "name": "result",
          "type": "string"
        }
      ],
      "name": "ResultRevealed",
      "type": "event"
    },
    {
      "inputs": [],
      "name": "JURY_REWARD",
      "outputs": [
        {
          "internalType": "uint256",
          "name": "",
          "type": "uint256"
        }
      ],
      "stateMutability": "view",
      "type": "function"
    },
    {
      "inputs": [],
      "name": "JURY_STAKE",
      "outputs": [
        {
          "internalType": "uint256",
          "name": "",
          "type": "uint256"
        }
      ],
      "stateMutability": "view",
      "type": "function"
    },
    {
      "inputs": [],
      "name": "REP_JURY_VOTE",
      "outputs": [
        {
          "internalType": "int256",
          "name": "",
          "type": "int256"
        }
      ],
      "stateMutability": "view",
      "type": "function"
    },
    {
      "inputs": [],
      "name": "REP_LIED",
      "outputs": [
        {
          "internalType": "int256",
          "name": "",
          "type": "int256"
        }
      ],
      "stateMutability": "view",
      "type": "function"
    },
    {
      "inputs": [],
      "name": "REP_NO_REVEAL",
      "outputs": [
        {
          "internalType": "int256",
          "name": "",
          "type": "int256"
        }
      ],
      "stateMutability": "view",
      "type": "function"
    },
    {
      "inputs": [],
      "name": "REP_TRUTHFUL",
      "outputs": [
        {
          "internalType": "int256",
          "name": "",
          "type": "int256"
        }
      ],
      "stateMutability": "view",
      "type": "function"
    },
    {
      "inputs": [],
      "name": "REP_WIN",
      "outputs": [
        {
          "internalType": "int256",
          "name": "",
          "type": "int256"
        }
      ],
      "stateMutability": "view",
      "type": "function"
    },
    {
      "inputs": [],
      "name": "REVEAL_PERIOD",
      "outputs": [
        {
          "internalType": "uint256",
          "name": "",
          "type": "uint256"
        }
      ],
      "stateMutability": "view",
      "type": "function"
    },
    {
      "inputs": [],
      "name": "collectTournamentFunds",
      "outputs": [
        {
          "internalType": "uint256",
          "name": "",
          "type": "uint256"
        }
      ],
      "stateMutability": "nonpayable",
      "type": "function"
    },
    {
      "inputs": [
        {
          "internalType": "bytes32",
          "name": "salt",
          "type": "bytes32"
        },
        {
          "internalType": "bool",
          "name": "didIWin",
          "type": "bool"
        }
      ],
      "name": "commitAndRevealResult",
      "outputs": [],
      "stateMutability": "payable",
      "type": "function"
    },
    {
      "inputs": [
        {
          "internalType": "bytes32",
          "name": "hashedCommitment",
          "type": "bytes32"
        }
      ],
      "name": "commitResult",
      "outputs": [],
      "stateMutability": "payable",
      "type": "function"
    },
    {
      "inputs": [],
      "name": "creator",
      "outputs": [
        {
          "internalType": "address",
          "name": "",
          "type": "address"
        }
      ],
      "stateMutability": "view",
      "type": "function"
    },
    {
      "inputs": [],
      "name": "currentMatch",
      "outputs": [
        {
          "internalType": "address",
          "name": "player1",
          "type": "address"
        },
        {
          "internalType": "address",
          "name": "player2",
          "type": "address"
        },
        {
          "internalType": "address",
          "name": "winner",
          "type": "address"
        },
        {
          "internalType": "bytes32",
          "name": "player1Commit",
          "type": "bytes32"
        },
        {
          "internalType": "bytes32",
          "name": "player2Commit",
          "type": "bytes32"
        },
        {
          "internalType": "bool",
          "name": "player1Joined",
          "type": "bool"
        },
        {
          "internalType": "bool",
          "name": "player2Joined",
          "type": "bool"
        },
        {
          "internalType": "string",
          "name": "player1Result",
          "type": "string"
        },
        {
          "internalType": "string",
          "name": "player2Result",
          "type": "string"
        },
        {
          "internalType": "bytes32",
          "name": "player1Salt",
          "type": "bytes32"
        },
        {
          "internalType": "bytes32",
          "name": "player2Salt",
          "type": "bytes32"
        },
        {
          "internalType": "uint256",
          "name": "entryFee",
          "type": "uint256"
        },
        {
          "internalType": "uint256",
          "name": "revealDeadline",
          "type": "uint256"
        }
      ],
      "stateMutability": "view",
      "type": "function"
    },
    {
      "inputs": [],
      "name": "factory",
      "outputs": [
        {
          "internalType": "address",
          "name": "",
          "type": "address"
        }
      ],
      "stateMutability": "view",
      "type": "function"
    },
    {
      "inputs": [],
      "name": "getEntryFee",
      "outputs": [
        {
          "internalType": "uint256",
          "name": "",
          "type": "uint256"
        }
      ],
      "stateMutability": "view",
      "type": "function"
    },
    {
      "inputs": [],
      "name": "getJurors",
      "outputs": [
        {
          "internalType": "address[]",
          "name": "jurors",
          "type": "address[]"
        }
      ],
      "stateMutability": "view",
      "type": "function"
    },
    {
      "inputs": [],
      "name": "getJuryCount",
      "outputs": [
        {
          "internalType": "uint256",
          "name": "",
          "type": "uint256"
        }
      ],
      "stateMutability": "view",
      "type": "function"
    },
    {
      "inputs": [],
      "name": "getMatchDetails",
      "outputs": [
        {
          "internalType": "address",
          "name": "player1",
          "type": "address"
        },
        {
          "internalType": "address",
          "name": "player2",
          "type": "address"
        },
        {
          "internalType": "address",
          "name": "winner",
          "type": "address"
        },
        {
          "internalType": "enum MatchContract.MatchStatus",
          "name": "matchStatus",
          "type": "uint8"
        },
        {
          "internalType": "uint256",
          "name": "matchRound",
          "type": "uint256"
        },
        {
          "internalType": "uint256",
          "name": "matchIdx",
          "type": "uint256"
        },
        {
          "internalType": "bool",
          "name": "player1Joined",
          "type": "bool"
        },
        {
          "internalType": "bool",
          "name": "player2Joined",
          "type": "bool"
        },
        {
          "internalType": "uint256",
          "name": "juryCount",
          "type": "uint256"
        },
        {
          "components": [
            {
              "internalType": "string",
              "name": "ipfsCIDPlayer1",
              "type": "string"
            },
            {
              "internalType": "string",
              "name": "ipfsCIDPlayer2",
              "type": "string"
            }
          ],
          "internalType": "struct MatchContract.MatchLog",
          "name": "_matchLog",
          "type": "tuple"
        }
      ],
      "stateMutability": "view",
      "type": "function"
    },
    {
      "inputs": [],
      "name": "getMatchLog",
      "outputs": [
        {
          "components": [
            {
              "internalType": "string",
              "name": "ipfsCIDPlayer1",
              "type": "string"
            },
            {
              "internalType": "string",
              "name": "ipfsCIDPlayer2",
              "type": "string"
            }
          ],
          "internalType": "struct MatchContract.MatchLog",
          "name": "",
          "type": "tuple"
        }
      ],
      "stateMutability": "view",
      "type": "function"
    },
    {
      "inputs": [],
      "name": "getMatchStatus",
      "outputs": [
        {
          "internalType": "enum MatchContract.MatchStatus",
          "name": "",
          "type": "uint8"
        }
      ],
      "stateMutability": "view",
      "type": "function"
    },
    {
      "inputs": [],
      "name": "getPlayers",
      "outputs": [
        {
          "internalType": "address",
          "name": "player1",
          "type": "address"
        },
        {
          "internalType": "address",
          "name": "player2",
          "type": "address"
        }
      ],
      "stateMutability": "view",
      "type": "function"
    },
    {
      "inputs": [],
      "name": "getWinner",
      "outputs": [
        {
          "internalType": "address",
          "name": "",
          "type": "address"
        }
      ],
      "stateMutability": "view",
      "type": "function"
    },
    {
      "inputs": [
        {
          "internalType": "address",
          "name": "jurorAddress",
          "type": "address"
        }
      ],
      "name": "hasJurorVoted",
      "outputs": [
        {
          "internalType": "bool",
          "name": "",
          "type": "bool"
        }
      ],
      "stateMutability": "view",
      "type": "function"
    },
    {
      "inputs": [],
      "name": "havePlayersJoined",
      "outputs": [
        {
          "internalType": "bool",
          "name": "player1Joined",
          "type": "bool"
        },
        {
          "internalType": "bool",
          "name": "player2Joined",
          "type": "bool"
        }
      ],
      "stateMutability": "view",
      "type": "function"
    },
    {
      "inputs": [
        {
          "internalType": "address",
          "name": "_creator",
          "type": "address"
        },
        {
          "internalType": "address",
          "name": "_player1",
          "type": "address"
        },
        {
          "internalType": "address",
          "name": "_player2",
          "type": "address"
        },
        {
          "internalType": "uint256",
          "name": "_entryFee",
          "type": "uint256"
        },
        {
          "internalType": "address",
          "name": "_tournamentContract",
          "type": "address"
        },
        {
          "internalType": "uint256",
          "name": "_tournamentId",
          "type": "uint256"
        },
        {
          "internalType": "uint256",
          "name": "_roundNumber",
          "type": "uint256"
        },
        {
          "internalType": "uint256",
          "name": "_matchIndex",
          "type": "uint256"
        }
      ],
      "name": "initialize",
      "outputs": [],
      "stateMutability": "nonpayable",
      "type": "function"
    },
    {
      "inputs": [],
      "name": "initialized",
      "outputs": [
        {
          "internalType": "bool",
          "name": "",
          "type": "bool"
        }
      ],
      "stateMutability": "view",
      "type": "function"
    },
    {
      "inputs": [
        {
          "internalType": "address",
          "name": "jurorAddress",
          "type": "address"
        }
      ],
      "name": "isJuror",
      "outputs": [
        {
          "internalType": "bool",
          "name": "",
          "type": "bool"
        }
      ],
      "stateMutability": "view",
      "type": "function"
    },
    {
      "inputs": [],
      "name": "isTournamentMatch",
      "outputs": [
        {
          "internalType": "bool",
          "name": "",
          "type": "bool"
        }
      ],
      "stateMutability": "view",
      "type": "function"
    },
    {
      "inputs": [
        {
          "internalType": "uint256",
          "name": "vote",
          "type": "uint256"
        }
      ],
      "name": "joinJuryAndVote",
      "outputs": [],
      "stateMutability": "payable",
      "type": "function"
    },
    {
      "inputs": [],
      "name": "joinMatch",
      "outputs": [],
      "stateMutability": "payable",
      "type": "function"
    },
    {
      "inputs": [],
      "name": "matchIndex",
      "outputs": [
        {
          "internalType": "uint256",
          "name": "",
          "type": "uint256"
        }
      ],
      "stateMutability": "view",
      "type": "function"
    },
    {
      "inputs": [],
      "name": "matchLog",
      "outputs": [
        {
          "internalType": "string",
          "name": "ipfsCIDPlayer1",
          "type": "string"
        },
        {
          "internalType": "string",
          "name": "ipfsCIDPlayer2",
          "type": "string"
        }
      ],
      "stateMutability": "view",
      "type": "function"
    },
    {
      "inputs": [
        {
          "internalType": "address",
          "name": "",
          "type": "address"
        }
      ],
      "name": "players",
      "outputs": [
        {
          "internalType": "int256",
          "name": "reputation",
          "type": "int256"
        },
        {
          "internalType": "uint256",
          "name": "totalMatches",
          "type": "uint256"
        },
        {
          "internalType": "bool",
          "name": "isBanned",
          "type": "bool"
        }
      ],
      "stateMutability": "view",
      "type": "function"
    },
    {
      "inputs": [],
      "name": "reputationRegistry",
      "outputs": [
        {
          "internalType": "contract ReputationRegistry",
          "name": "",
          "type": "address"
        }
      ],
      "stateMutability": "view",
      "type": "function"
    },
    {
      "inputs": [
        {
          "internalType": "bytes32",
          "name": "salt",
          "type": "bytes32"
        },
        {
          "internalType": "bool",
          "name": "result",
          "type": "bool"
        }
      ],
      "name": "revealResult",
      "outputs": [],
      "stateMutability": "nonpayable",
      "type": "function"
    },
    {
      "inputs": [],
      "name": "roundNumber",
      "outputs": [
        {
          "internalType": "uint256",
          "name": "",
          "type": "uint256"
        }
      ],
      "stateMutability": "view",
      "type": "function"
    },
    {
      "inputs": [],
      "name": "status",
      "outputs": [
        {
          "internalType": "enum MatchContract.MatchStatus",
          "name": "",
          "type": "uint8"
        }
      ],
      "stateMutability": "view",
      "type": "function"
    },
    {
      "inputs": [
        {
          "internalType": "string",
          "name": "ipfsCID",
          "type": "string"
        }
      ],
      "name": "storeMatchLog",
      "outputs": [],
      "stateMutability": "nonpayable",
      "type": "function"
    },
    {
      "inputs": [],
      "name": "tournamentContract",
      "outputs": [
        {
          "internalType": "address",
          "name": "",
          "type": "address"
        }
      ],
      "stateMutability": "view",
      "type": "function"
    },
    {
      "inputs": [],
      "name": "tournamentId",
      "outputs": [
        {
          "internalType": "uint256",
          "name": "",
          "type": "uint256"
        }
      ],
      "stateMutability": "view",
      "type": "function"
    }
  ],
  "bytecode": "0x60c034620000d457601f6200342e38819003918201601f19168301916001600160401b03831184841017620000d9578084926040948552833981010312620000d4576200005a60206200005283620000ef565b9201620000ef565b6080919091526001600160a01b031660a05260405161332990816200010582396080518181816108f60152610d46015260a051818181610d0101528181611085015281816117b0015281816119dd01528181611a4501528181611afc01528181611b4d01528181612559015281816126660152612f7b0152f35b600080fd5b634e487b7160e01b600052604160045260246000fd5b51906001600160a01b0382168203620000d45756fe6080604052600436101561001257600080fd5b6000803560e01c806302c0cdc4146127e357806302d05d3f146127bc57806302edf4b4146127a0578063085297151461274c5780630ac2c4c3146127305780630ee67e90146124e3578063158ef93e146124be578063175c55f9146124a0578063200d2ed21461026b5780632037a7aa1461246157806327a691761461243e5780632c70444e146122395780634e2786fb1461221b5780635b3b2af814612129578063605a906a146120ee5780636be6258b146120cc5780638b227ff4146120af5780638b5b9ccc1461207b5780638e7ea5b21461205257806397427cd21461176c578063a25962341461173b578063a4785d141461171e578063ad18f0da146113f3578063aeebaf1b1461101c578063c05b012414610d93578063c3529f3114610d75578063c45a015514610d30578063c8db44e314610ceb578063d9229a3a14610c21578063da03fef614610bfe578063dda68b9d1461067c578063e0aff41514610660578063e2eb41ff1461060a578063e579a3bb146102b4578063e586a4f014610296578063e8779bf11461026b578063e8d3c1f41461024d578063e97b34891461021e578063f809ab43146102005763fbeb89dd146101d557600080fd5b346101fd57806003193601126101fd576001546040516001600160a01b039091168152602090f35b80fd5b50346101fd57806003193601126101fd576020600254604051908152f35b50346101fd57806003193601126101fd576040600b5460ff8251918181161515835260081c1615156020820152f35b50346101fd57806003193601126101fd576020601154604051908152f35b50346101fd57806003193601126101fd57602060ff60055460081c166102946040518092612941565bf35b50346101fd57806003193601126101fd576020601054604051908152f35b50346101fd57602090816003193601126101fd5760043567ffffffffffffffff8082116106065736602383011215610606578160040135908111610606576024913683838301011161060257600654336001600160a01b03918216149061032490829081156105f4575b50612c7f565b156104d95761033460155461297a565b601f8111610492575b5083601f83116001146104135784956103e484938695600098976103f2958a9992610406575b50508560011b9088198760031b1c1916176015555b888360405196610387886129b4565b6012885271026b0ba31b4103637b39039ba37b932b21d160751b8289015280896103b082612ccb565b956103be6040519788612a16565b828752018386013783010152604051948593840196634b5c427760e01b88528401612b6b565b03601f198101835282612a16565b51906a636f6e736f6c652e6c6f675afa5080f35b8301013590508638610363565b6015855260008051602061327483398151915290601f198416865b818110610479575084936103f29360009899938998976103e4941061045e575b5050600185811b01601555610378565b87891960f88960031b161c199184010135169055388061044e565b919288600181928987890101358155019401920161042e565b6104c9906015600052600080516020613274833981519152601f850160051c8101918886106104cf575b601f0160051c0190612bc7565b3861033d565b90915081906104bc565b6104e460165461297a565b601f81116105b8575b5083601f83116001146105395784956103e484938695600098976103f2958a999261052c575b50508560011b9088198760031b1c191617601655610378565b8301013590508638610513565b601685526000805160206132d483398151915290601f198416865b81811061059f575084936103f29360009899938998976103e49410610584575b5050600185811b01601655610378565b87891960f88960031b161c1991840101351690553880610574565b9192886001819289878901013581550194019201610554565b6105ee9060166000526000805160206132d4833981519152601f850160051c8101918886106104cf57601f0160051c0190612bc7565b386104ed565b90506007541633143861031e565b8380fd5b8280fd5b50346101fd5760203660031901126101fd576060906040906001600160a01b03610632612964565b16815260176020522080549060ff600260018301549201541690604051928352602083015215156040820152f35b50346101fd57806003193601126101fd576020604051600f8152f35b50346101fd5761068b36612b90565b9060018060a01b03918260065416331491828015610bf1575b6106ad90612c7f565b60ff60055460081c166005811015610bdd57600203610ba2576014544211610b655760405192602093848101906d092bee4cae0dee4e8bee8e4eae8d60931b825283602e820152602e8152610701816129fa565b5190209015610a36576107179060095414612d29565b8115610a2957610725612d66565b80519067ffffffffffffffff8211610a1557819061074d82610748600c5461297a565b612c22565b8590601f83116001146109a4578892610999575b50508160011b916000199060031b1c191617600c555b600e556107ab604051610789816129b4565b6011815270141b185e595c880c481c995d99585b1959607a1b848201526131cd565b1561097a576000805160206132b48339815191526107d76107ca612d66565b6040519182913383612db4565b0390a16108076040516107e9816129b4565b600d81526c109bdd1a081c995d99585b1959609a1b838201526131cd565b600e5415158061096f575b61081a578280f35b604051838282018261082b82612dd6565b039261083f601f1994858101835282612a16565b519020604051848101906108628161085684612e53565b03868101835282612a16565b519020036108e1575060405161088b838201928261087f85612e53565b03908101835282612a16565b51902090604051908101906a383630bcb2b9192fbbb7b760a91b8252600b81526108b4816129b4565b519020036108cf576108c99060075416612f2f565b38808280f35b6108dc9060065416612f2f565b6108c9565b9291505061030061ff001960055416176005557f000000000000000000000000000000000000000000000000000000000000000016803b1561096c578180916024604051809481936362eefef760e11b83523060048401525af180156109615761094d575b50506108c9565b610956906129e6565b6101fd578038610946565b6040513d84823e3d90fd5b50fd5b50600f541515610812565b6000805160206132b48339815191526107d7610994612d8d565b6107ca565b015190503880610761565b600c89526000805160206132548339815191529250601f198416895b888282106109ff5750509084600195949392106109e6575b505050811b01600c55610777565b015160001960f88460031b161c191690553880806109d8565b60018596829396860151815501950193016109c0565b634e487b7160e01b87526041600452602487fd5b610a31612d8d565b610725565b610a4390600a5414612d29565b8115610b5857610a51612d8d565b80519067ffffffffffffffff8211610a15578190610a7982610a74600d5461297a565b612bde565b8590601f8311600114610ae7578892610adc575b50508160011b916000199060031b1c191617600d555b600f55610ad7604051610ab5816129b4565b6011815270141b185e595c880c881c995d99585b1959607a1b848201526131cd565b6107ab565b015190503880610a8d565b600d89526000805160206132948339815191529250601f198416895b88828210610b42575050908460019594939210610b29575b505050811b01600d55610aa3565b015160001960f88460031b161c19169055388080610b1b565b6001859682939686015181550195019301610b03565b610b60612d66565b610a51565b60405162461bcd60e51b815260206004820152601560248201527414995d99585b081c195c9a5bd908195e1c1a5c9959605a1b6044820152606490fd5b60405162461bcd60e51b81526020600482015260136024820152724e6f7420696e2072657665616c20706861736560681b6044820152606490fd5b634e487b7160e01b86526021600452602486fd5b50600754841633146106a4565b50346101fd57806003193601126101fd57602060ff600554166040519015158152f35b50346101fd57806003193601126101fd57610c3a612c66565b5060018060a01b038060065416610ce78260075416926008541660ff60055460081c1660ff600354600454600b5491610cb06011549560405197610c7d896129b4565b610c85612a38565b8952610c8f612ae4565b60208a01526040519b8c9b8c5260208c015260408b015260608a0190612941565b608088015260a0870152818116151560c087015260081c16151560e085015261010084015261014080610120850152830190612914565b0390f35b50346101fd57806003193601126101fd576040517f00000000000000000000000000000000000000000000000000000000000000006001600160a01b03168152602090f35b50346101fd57806003193601126101fd576040517f00000000000000000000000000000000000000000000000000000000000000006001600160a01b03168152602090f35b50346101fd57806003193601126101fd5760206040516202a3008152f35b50346101fd57806003193601126101fd576001546001600160a01b03169033829003610fcd5760055460ff8160081c166005811015610fb957600403610f7e5760ff1615610f4057479060405192610dea846129b4565b60118452610e13836020957002932b6b0b4b734b73390233ab732399d1607d1b8782015261320e565b600080604051610e22816129b4565b601581527402a37bab93730b6b2b73a1031b7b73a3930b1ba1d1605d1b87820152604051610e8081610e6c8a82019463319af33360e01b86526040602484015260648301906128d4565b87604483015203601f198101835282612a16565b51906a636f6e736f6c652e6c6f675afa508280610eeb575b505050610ee3604051610eaa816129fa565b602281527f5472616e7366657272656420746f20746f75726e616d656e7420636f6e747261848201526118dd60f21b60408201526131cd565b604051908152f35b8280929181925af1610efb61319d565b5015610f0957388082610e98565b60405162461bcd60e51b815260048101839052600f60248201526e151c985b9cd9995c8819985a5b1959608a1b6044820152606490fd5b60405162461bcd60e51b815260206004820152601660248201527509cdee840c240e8deeae4dcc2dacadce840dac2e8c6d60531b6044820152606490fd5b60405162461bcd60e51b815260206004820152601360248201527213585d18da081b9bdd0818dbdb5c1b195d1959606a1b6044820152606490fd5b634e487b7160e01b83526021600452602483fd5b60405162461bcd60e51b815260206004820152602160248201527f4f6e6c7920746f75726e616d656e742063616e20636f6c6c6563742066756e646044820152607360f81b6064820152608490fd5b5061102636612b90565b60018060a01b039182600654163314918280156113e6575b61104790612c7f565b60ff60055460081c16916005831015610bdd576110676001809414612ce7565b604051630c2eb40360e01b81523360048201526020949085816024817f00000000000000000000000000000000000000000000000000000000000000008b165afa9081156113db5788916113a9575b50340361136b57604051858101906d092bee4cae0dee4e8bee8e4eae8d60931b825283602e820152602e81526110eb816129fa565b519020901561125357600955600e551561124557611107612d66565b905b8151829167ffffffffffffffff8211610a155761112b82610748600c5461297a565b8493601f83116001146111c157918080926000805160206132b4833981519152966111a196958b946111b6575b50501b916000199060031b1c191617600c555b7fcc23703cd45173f69f30fe27972f3df154330563d4b4e84385f55bed07d55da184604051338152a16040519182913383612db4565b0390a1600e5415158061096f5761081a578280f35b015192503880611158565b909293601f19831691600c895260008051602061325483398151915292895b88828210611231575050916111a1959391856000805160206132b483398151915298969410611218575b505050811b01600c5561116b565b015160001960f88460031b161c1916905538808061120a565b8385015186559487019493840193016111e0565b61124d612d8d565b90611109565b600a55600f551561135d57611266612d8d565b905b8151829167ffffffffffffffff8211610a155761128a82610a74600d5461297a565b8493601f83116001146112d957918080926000805160206132b4833981519152966111a196958b946112ce575b50501b916000199060031b1c191617600d5561116b565b0151925038806112b7565b909293601f19831691600d895260008051602061329483398151915292895b88828210611349575050916111a1959391856000805160206132b483398151915298969410611330575b505050811b01600d5561116b565b015160001960f88460031b161c19169055388080611322565b8385015186559487019493840193016112f8565b611365612d66565b90611268565b60405162461bcd60e51b8152600481018690526016602482015275125b98dbdc9c9958dd081cdd185ad948185b5bdd5b9d60521b6044820152606490fd5b90508581813d83116113d4575b6113c08183612a16565b810103126113cf5751386110b6565b600080fd5b503d6113b6565b6040513d8a823e3d90fd5b506007548416331461103e565b50346101fd576101003660031901126101fd5761140e612964565b6001600160a01b03919060248035848116929091908383036113cf5760443593868516908186036113cf57608435928884168094036113cf5787549060ff8260a01c166116e45790899392916bffffffffffffffffffffffff60a01b9a8b9116911617885588600654161760065587600754161760075586600854166008556064356010556202a30042018042116116d15760145560059261ff0019845416845561ffff19600b5416600b556040516020918282019167ffffffffffffffff90808410828511176116bc578a90846040525289116116aa57600160401b89116116aa575060115488601155808910611674575b509060118852875b888110611640575050505061151f60155461297a565b601f8111611609575b50600060155561153960165461297a565b95601f87116115d2575b7f400084faa1d1feebd72b5492202d9905c0f245dfb43e76ca408fb6f113188e289596506000601655816115a5575b5050845460ff60a01b1916600160a01b17855550604080516001600160a01b03928316815292909116602083015290a180f35b600154161760015560a43560025560c43560035560e435600455600160ff19825416179055388080611572565b6016600052601f6000805160206132d48339815191529701831c8701965b8781106115fd5750611543565b600081556001016115f0565b6015600052601f6000805160206132748339815191529101831c8101905b8181106116345750611528565b60008155600101611627565b825184167f31ecc21a745e3968a04e9570e4425bc18fa8019c68028196b546d1669c200c6882015591810191600101611509565b6116a490897f31ecc21a745e3968a04e9570e4425bc18fa8019c68028196b546d1669c200c689182019101612bc7565b38611501565b634e487b7160e01b8952604160045288fd5b82634e487b7160e01b60005260416004526000fd5b634e487b7160e01b875260116004528387fd5b60405162461bcd60e51b81526020600482015260138188015272105b1c9958591e481a5b9a5d1a585b1a5e9959606a1b6044820152606490fd5b50346101fd57806003193601126101fd5760206040516018198152f35b50346101fd57806003193601126101fd57611754612a38565b61175c612ae4565b90610ce760405192839283612b6b565b5060203660031901126101fd5760043560ff60055460081c166005811015610fb957600303612019576040516397f735d560e01b81523360048201526020816024817f00000000000000000000000000000000000000000000000000000000000000006001600160a01b03165afa90811561200e578391611fd3575b50611f9d5767016345785d8a00003403611f6157600181148015611f57575b15611ef9576006546001600160a01b031633141580611ee4575b15611e9f57338252601360205260ff604083205416611e6857601154600160401b811015611e54578060016118599201601155612ebd565b81549060031b9033821b9160018060a01b03901b1916179055338252601360205260408220600160ff19825416179055601260205280604083205581806040516118a2816129b4565b600d81526c766f746564206173206a75727960981b60208201526040516118df816103e4602082019463759f86bb60e01b86523360248401612db4565b51906a636f6e736f6c652e6c6f675afa506040519081527fba16d6c69d9501b1e025427f587bcf0a2a79e55b9f669d95965c4e7692d08bda60203392a2601154600381101561192c575080f35b8190829083905b808210611dbe57505080821115611d945750506006546001600160a01b0316905b611992604051611963816129b4565b601d81527f4a75727920646563696465642061626f7574207468652077696e6e657200000060208201526131cd565b6005805461ff001916610400179055600880546001600160a01b0319166001600160a01b03848116918217909255600654909116908103611d8f57506007546001600160a01b03165b7f00000000000000000000000000000000000000000000000000000000000000006001600160a01b03163b15611ba65760405163af8c524760e01b81526001600160a01b0391821660048201526031196024820152604481018390529082908290606490829084907f0000000000000000000000000000000000000000000000000000000000000000165af1801561096157611d80575b5090815b601154811015611baa578280808066b1a2bc2ec50000611a9586612ebd565b905460039190911b1c6001600160a01b031682f11561096157611adc604051611abd816129b4565b600d81526c506179696e67206a757269657360981b60208201526131cd565b82611ae682612ebd565b90546001600160a01b0360039290921b1c8116907f0000000000000000000000000000000000000000000000000000000000000000163b15611ba65760405163af8c524760e01b8152600481019190915260056024820152604481018290528181606481837f00000000000000000000000000000000000000000000000000000000000000006001600160a01b03165af1801561096157611b92575b5050611b8d90612f0a565b611a76565b611b9b906129e6565b610606578238611b82565b5080fd5b5060055460ff1615611cd657600154600254600354600454604051635d41d3eb60e11b602082019081526024820194909452604481019290925260648201526001600160a01b038481166084830152859384939116918390611c0f8160a481016103e4565b51925af1611c1b61319d565b5015611c86575b611c56604051611c31816129b4565b60138152724a7572696573205061796564206a757269657360681b60208201526131cd565b6001600160a01b03167fe24a70990ecb8faa452b0c2734367241a6a9e50789ef324c26e59e09b0bc13328280a280f35b611cd1604051611c95816129fa565b602481527f4661696c656420746f207265706f7274206d6174636820746f20746f75726e616020820152631b595b9d60e21b60408201526131cd565b611c22565b6010548060011b9080820460021490151715611d6c576011549066b1a2bc2ec500009180830292830403611d585781810391818311611d445784809381938293839114611d3b575b6001600160a01b03871690f1611c225750604051903d90823e3d90fd5b506108fc611d1e565b634e487b7160e01b85526011600452602485fd5b634e487b7160e01b84526011600452602484fd5b634e487b7160e01b83526011600452602483fd5b611d89906129e6565b38611a72565b6119db565b1115611dac576007546001600160a01b031690611954565b6006546001600160a01b031690611954565b9092611dc984612ebd565b905460039190911b1c6001600160a01b0316855260126020526040852054600103611e0657611dfa611e0091612f0a565b93612f0a565b90611933565b92611e1081612ebd565b905460039190911b1c6001600160a01b0316855260126020526040852054600214611e3f575b611e0090612f0a565b91611e4c611e0091612f0a565b929050611e36565b634e487b7160e01b83526041600452602483fd5b60405162461bcd60e51b815260206004820152600f60248201526e20b63932b0b23c903090353ab937b960891b6044820152606490fd5b60405162461bcd60e51b815260206004820152601860248201527f506c61796572732063616e6e6f74206265206a75726f727300000000000000006044820152606490fd5b506007546001600160a01b0316331415611821565b60405162461bcd60e51b815260206004820152603060248201527f496e76616c696420766f74653a206d75737420626520312028706c617965723160448201526f29206f7220322028706c61796572322960801b6064820152608490fd5b5060028114611807565b60405162461bcd60e51b8152602060048201526014602482015273496e636f7272656374206a757279207374616b6560601b6044820152606490fd5b60405162461bcd60e51b815260206004820152600e60248201526d165bdd48185c994818985b9b995960921b6044820152606490fd5b90506020813d602011612006575b81611fee60209383612a16565b810103126106065751801515810361060657386117e8565b3d9150611fe1565b6040513d85823e3d90fd5b60405162461bcd60e51b81526020600482015260116024820152704e6f20616374697665206469737075746560781b6044820152606490fd5b50346101fd57806003193601126101fd576008546040516001600160a01b039091168152602090f35b50346101fd57806003193601126101fd57600654600754604080516001600160a01b03938416815292909116602083015290f35b50346101fd57806003193601126101fd5760206040516031198152f35b50346101fd57806003193601126101fd57602060405166b1a2bc2ec500008152f35b50346101fd5760203660031901126101fd576020906040906001600160a01b03612116612964565b1681526012835220541515604051908152f35b50346101fd57806003193601126101fd5760115461214681612baf565b916121546040519384612a16565b81835261216082612baf565b6020928484019291601f1901368437815b8181106121c157505060405193838594850191818652518092526040850193925b8281106121a157505050500390f35b83516001600160a01b031685528695509381019392810192600101612192565b6121cf819694959396612ebd565b905485518310156122075760039190911b1c6001600160a01b0316600582901b85018401526121fd90612f0a565b9491939294612171565b634e487b7160e01b88526032600452602488fd5b50346101fd57806003193601126101fd576020600354604051908152f35b50346101fd57806003193601126101fd5760018060a01b039081600654169082600754169260085416600954600a54600b549360405181600c54928261227e8561297a565b91828252600195868116908160001461241f57506001146123d3575b6122a692500383612a16565b6040519281849291600d54916122bb8361297a565b808652928281169081156123b35750600114612367575b505050036122e09083612a16565b600e5495600f549360105495601454976040519b8c9b8c5260208c015260408b015260608a0152608089015260ff8116151560a089015260081c60ff16151560c08801526101a08060e08901528701612338916128d4565b86810361010088015261234a916128d4565b936101208601526101408501526101608401526101808301520390f35b91939250600d82526000805160206132948339815191525b84831061239857505081602092935001013880806122d2565b81935090816020925483858a0101520191019091859261237f565b925050506020925060ff191682840152151560051b8201013880806122d2565b50600c8352908290856000805160206132548339815191525b828410612405575050509060206122a69282010161229a565b6020929450805483858901015201910190918585936123ec565b602092506122a694915060ff191682840152151560051b82010161229a565b50346101fd57806003193601126101fd57602060405167016345785d8a00008152f35b50346101fd5760203660031901126101fd5760209060ff906040906001600160a01b0361248c612964565b168152601384522054166040519015158152f35b50346101fd57806003193601126101fd576020600454604051908152f35b50346101fd57806003193601126101fd5760ff6020915460a01c166040519015158152f35b50602080600319360112611ba65760065460043591906001600160a01b039081163314808015612723575b61251790612c7f565b60ff60055460081c166005811015610bdd5791839161253a600160249514612ce7565b1561264c57604051630c2eb40360e01b815233600482015292839182907f0000000000000000000000000000000000000000000000000000000000000000165afa908115612641578491612614575b5034036125c457506009555b6009541515806125b9575b6125a75780f35b61020061ff0019600554161760055580f35b50600a5415156125a0565b6084906040519062461bcd60e51b82526004820152602360248201527f496e636f7272656374207374616b6520616d6f756e7420666f7220706c61796560448201526272203160e81b6064820152fd5b90508181813d831161263a575b61262b8183612a16565b81010312610602575138612589565b503d612621565b6040513d86823e3d90fd5b604051630c2eb40360e01b815233600482015292839182907f0000000000000000000000000000000000000000000000000000000000000000165afa9081156126415784916126f6575b5034036126a65750600a55612595565b6084906040519062461bcd60e51b82526004820152602360248201527f496e636f7272656374207374616b6520616d6f756e7420666f7220706c61796560448201526239101960e91b6064820152fd5b90508181813d831161271c575b61270d8183612a16565b81010312610602575138612696565b503d612703565b506007548216331461250e565b50346101fd57806003193601126101fd576020604051600a8152f35b50346101fd57806003193601126101fd57612765612c66565b50610ce7604051612775816129b4565b61277d612a38565b8152612787612ae4565b6020820152604051918291602083526020830190612914565b50346101fd57806003193601126101fd57602060405160058152f35b50346101fd57806003193601126101fd57546040516001600160a01b039091168152602090f35b50806003193601126101fd57600654336001600160a01b03918216149061281290829081156105f45750612c7f565b601054340361289d57337f31e760aa525306aba638a784082a013b6a1cc0a9a1789f3f22281c0453b10b1f8380a21561288957600160ff19600b541617600b555b600b5460ff8116908161287b575b506128695780f35b61010061ff0019600554161760055580f35b60ff915060081c1638612861565b61010061ff0019600b541617600b55612853565b60405162461bcd60e51b815260206004820152600f60248201526e57726f6e6720456e7472792046656560881b6044820152606490fd5b919082519283825260005b848110612900575050826000602080949584010152601f8019910116010190565b6020818301810151848301820152016128df565b61293e91602061292d83516040845260408401906128d4565b9201519060208184039101526128d4565b90565b90600582101561294e5752565b634e487b7160e01b600052602160045260246000fd5b600435906001600160a01b03821682036113cf57565b90600182811c921680156129aa575b602083101461299457565b634e487b7160e01b600052602260045260246000fd5b91607f1691612989565b6040810190811067ffffffffffffffff8211176129d057604052565b634e487b7160e01b600052604160045260246000fd5b67ffffffffffffffff81116129d057604052565b6060810190811067ffffffffffffffff8211176129d057604052565b90601f8019910116810190811067ffffffffffffffff8211176129d057604052565b6040519060008260155491612a4c8361297a565b80835292600190818116908115612ac25750600114612a75575b50612a7392500383612a16565b565b6015600090815291506000805160206132748339815191525b848310612aa75750612a73935050810160200138612a66565b81935090816020925483858a01015201910190918592612a8e565b905060209250612a7394915060ff191682840152151560051b82010138612a66565b6040519060008260165491612af88361297a565b80835292600190818116908115612ac25750600114612b1e5750612a7392500383612a16565b6016600090815291506000805160206132d48339815191525b848310612b505750612a73935050810160200138612a66565b81935090816020925483858a01015201910190918592612b37565b9091612b8261293e936040845260408401906128d4565b9160208184039101526128d4565b60409060031901126113cf576004359060243580151581036113cf5790565b67ffffffffffffffff81116129d05760051b60200190565b818110612bd2575050565b60008155600101612bc7565b90601f8211612beb575050565b612a7391600d600052600080516020613294833981519152906020601f840160051c830193106104cf57601f0160051c0190612bc7565b90601f8211612c2f575050565b612a7391600c600052600080516020613254833981519152906020601f840160051c830193106104cf57601f0160051c0190612bc7565b60405190612c73826129b4565b60606020838281520152565b15612c8657565b60405162461bcd60e51b815260206004820152601a60248201527f4e6f74206120706c61796572206f662074686973204d617463680000000000006044820152606490fd5b67ffffffffffffffff81116129d057601f01601f191660200190565b15612cee57565b60405162461bcd60e51b81526020600482015260136024820152724e6f7420696e20636f6d6d697420706861736560681b6044820152606490fd5b15612d3057565b60405162461bcd60e51b815260206004820152600e60248201526d125b9d985b1a59081c995d99585b60921b6044820152606490fd5b60405190612d73826129b4565b600b82526a383630bcb2b918afbbb7b760a91b6020830152565b60405190612d9a826129b4565b600b82526a383630bcb2b9192fbbb7b760a91b6020830152565b6001600160a01b03909116815260406020820181905261293e929101906128d4565b600c5460009291612de68261297a565b91600190818116908115612e405750600114612e0157505050565b9091929350600c600052600080516020613254833981519152906000915b848310612e2d575050500190565b8181602092548587015201920191612e1f565b60ff191683525050811515909102019150565b600d5460009291612e638261297a565b91600190818116908115612e405750600114612e7e57505050565b9091929350600d600052600080516020613294833981519152906000915b848310612eaa575050500190565b8181602092548587015201920191612e9c565b601154811015612ef45760116000527f31ecc21a745e3968a04e9570e4425bc18fa8019c68028196b546d1669c200c680190600090565b634e487b7160e01b600052603260045260246000fd5b6000198114612f195760010190565b634e487b7160e01b600052601160045260246000fd5b6005805461ff001916610400179055600880546001600160a01b0319166001600160a01b0383811691821790925560065490926000929091811680850361319757508060075416905b807f00000000000000000000000000000000000000000000000000000000000000001691823b156131935760409283519063af8c524760e01b91828152886004820152600f6024820152876044820152878160648183865af1801561318957613176575b50803b15613154579160648792838695885196879586948552166004840152600a60248401528160448401525af1801561316c57908591613158575b505060ff6005541661304e575b505050807fe24a70990ecb8faa452b0c2734367241a6a9e50789ef324c26e59e09b0bc133291a2565b60025490613090828451613061816129b4565b601781527f546f75726e616d656e742064657461696c733a2069643d000000000000000000602082015261320e565b6130ce82845161309f816129b4565b601c81527f5265706f7274696e6720746f20746f75726e616d656e742e2049443a00000000602082015261320e565b6001541660035460045492823b15613154578451635d41d3eb60e11b81526004810191909152602481019190915260448101929092526001600160a01b039390931660648201529183908390608490829084905af190811561314b5750613137575b8080613025565b61314182916129e6565b6101fd5738613130565b513d84823e3d90fd5b8680fd5b613161906129e6565b610602578338613018565b83513d87823e3d90fd5b613182909791976129e6565b9538612fdc565b86513d8a823e3d90fd5b8480fd5b90612f78565b3d156131c8573d906131ae82612ccb565b916131bc6040519384612a16565b82523d6000602084013e565b606090565b600080916040516131fb816103e4602082019463104c13eb60e21b86526020602484015260448301906128d4565b51906a636f6e736f6c652e6c6f675afa50565b6000919082916131fb604051809261323f6020830195632d839cb360e21b87526040602485015260648401906128d4565b90604483015203601f198101835282612a1656fedf6966c971051c3d54ec59162606531493a51404a002842f56009d7e5cf4a8c755f448fdea98c4d29eb340757ef0a66cd03dbb9538908a6a81d96026b71ec475d7b6990105719101dabeb77144f2a3385c8033acd3af97e9423a695e81ad1eb594fab3ba1113bc89a86444f7eaec86f02c0a085123dbfcae921465bed91a6145d833147d7dc355ba459fc788f669e58cfaf9dc25ddcd0702e87d69c7b5124289a26469706673582212208375e7a853259a2591164eb41082c8875de6b0d7f3250e53ea51bf87ae4d34a164736f6c63430008140033",
  "linkReferences": {},
  "deployedLinkReferences": {}
}