{
  "_format": "hh-sol-artifact-1",
  "contractName": "MatchContract",
  "sourceName": "contracts/MatchContract.sol",
  "abi": [
    {
      "inputs": [
        {
          "internalType": "address",
          "name": "_factory",
          "type": "address"
        },
        {
          "internalType": "address",
          "name": "_registry",
          "type": "address"
        }
      ],
      "stateMutability": "nonpayable",
      "type": "constructor"
    },
    {
      "anonymous": false,
      "inputs": [
        {
          "indexed": true,
          "internalType": "address",
          "name": "juror",
          "type": "address"
        },
        {
          "indexed": false,
          "internalType": "uint256",
          "name": "vote",
          "type": "uint256"
        }
      ],
      "name": "JuryVoted",
      "type": "event"
    },
    {
      "anonymous": false,
      "inputs": [
        {
          "indexed": false,
          "internalType": "address",
          "name": "player1",
          "type": "address"
        },
        {
          "indexed": false,
          "internalType": "address",
          "name": "player2",
          "type": "address"
        }
      ],
      "name": "MatchCreated",
      "type": "event"
    },
    {
      "anonymous": false,
      "inputs": [
        {
          "indexed": true,
          "internalType": "address",
          "name": "winner",
          "type": "address"
        }
      ],
      "name": "MatchResolved",
      "type": "event"
    },
    {
      "anonymous": false,
      "inputs": [
        {
          "indexed": true,
          "internalType": "address",
          "name": "player",
          "type": "address"
        }
      ],
      "name": "PlayerJoined",
      "type": "event"
    },
    {
      "anonymous": false,
      "inputs": [
        {
          "indexed": false,
          "internalType": "address",
          "name": "player",
          "type": "address"
        }
      ],
      "name": "ResultCommitted",
      "type": "event"
    },
    {
      "anonymous": false,
      "inputs": [
        {
          "indexed": false,
          "internalType": "address",
          "name": "player",
          "type": "address"
        },
        {
          "indexed": false,
          "internalType": "string",
          "name": "result",
          "type": "string"
        }
      ],
      "name": "ResultRevealed",
      "type": "event"
    },
    {
      "inputs": [],
      "name": "JURY_REWARD",
      "outputs": [
        {
          "internalType": "uint256",
          "name": "",
          "type": "uint256"
        }
      ],
      "stateMutability": "view",
      "type": "function"
    },
    {
      "inputs": [],
      "name": "JURY_STAKE",
      "outputs": [
        {
          "internalType": "uint256",
          "name": "",
          "type": "uint256"
        }
      ],
      "stateMutability": "view",
      "type": "function"
    },
    {
      "inputs": [],
      "name": "REP_JURY_VOTE",
      "outputs": [
        {
          "internalType": "int256",
          "name": "",
          "type": "int256"
        }
      ],
      "stateMutability": "view",
      "type": "function"
    },
    {
      "inputs": [],
      "name": "REP_LIED",
      "outputs": [
        {
          "internalType": "int256",
          "name": "",
          "type": "int256"
        }
      ],
      "stateMutability": "view",
      "type": "function"
    },
    {
      "inputs": [],
      "name": "REP_NO_REVEAL",
      "outputs": [
        {
          "internalType": "int256",
          "name": "",
          "type": "int256"
        }
      ],
      "stateMutability": "view",
      "type": "function"
    },
    {
      "inputs": [],
      "name": "REP_TRUTHFUL",
      "outputs": [
        {
          "internalType": "int256",
          "name": "",
          "type": "int256"
        }
      ],
      "stateMutability": "view",
      "type": "function"
    },
    {
      "inputs": [],
      "name": "REP_WIN",
      "outputs": [
        {
          "internalType": "int256",
          "name": "",
          "type": "int256"
        }
      ],
      "stateMutability": "view",
      "type": "function"
    },
    {
      "inputs": [],
      "name": "REVEAL_PERIOD",
      "outputs": [
        {
          "internalType": "uint256",
          "name": "",
          "type": "uint256"
        }
      ],
      "stateMutability": "view",
      "type": "function"
    },
    {
      "inputs": [],
      "name": "collectTournamentFunds",
      "outputs": [
        {
          "internalType": "uint256",
          "name": "",
          "type": "uint256"
        }
      ],
      "stateMutability": "nonpayable",
      "type": "function"
    },
    {
      "inputs": [
        {
          "internalType": "bytes32",
          "name": "salt",
          "type": "bytes32"
        },
        {
          "internalType": "bool",
          "name": "didIWin",
          "type": "bool"
        }
      ],
      "name": "commitAndRevealResult",
      "outputs": [],
      "stateMutability": "payable",
      "type": "function"
    },
    {
      "inputs": [
        {
          "internalType": "bytes32",
          "name": "hashedCommitment",
          "type": "bytes32"
        }
      ],
      "name": "commitResult",
      "outputs": [],
      "stateMutability": "payable",
      "type": "function"
    },
    {
      "inputs": [],
      "name": "creator",
      "outputs": [
        {
          "internalType": "address",
          "name": "",
          "type": "address"
        }
      ],
      "stateMutability": "view",
      "type": "function"
    },
    {
      "inputs": [],
      "name": "currentMatch",
      "outputs": [
        {
          "internalType": "address",
          "name": "player1",
          "type": "address"
        },
        {
          "internalType": "address",
          "name": "player2",
          "type": "address"
        },
        {
          "internalType": "address",
          "name": "winner",
          "type": "address"
        },
        {
          "internalType": "bytes32",
          "name": "player1Commit",
          "type": "bytes32"
        },
        {
          "internalType": "bytes32",
          "name": "player2Commit",
          "type": "bytes32"
        },
        {
          "internalType": "bool",
          "name": "player1Joined",
          "type": "bool"
        },
        {
          "internalType": "bool",
          "name": "player2Joined",
          "type": "bool"
        },
        {
          "internalType": "string",
          "name": "player1Result",
          "type": "string"
        },
        {
          "internalType": "string",
          "name": "player2Result",
          "type": "string"
        },
        {
          "internalType": "bytes32",
          "name": "player1Salt",
          "type": "bytes32"
        },
        {
          "internalType": "bytes32",
          "name": "player2Salt",
          "type": "bytes32"
        },
        {
          "internalType": "uint256",
          "name": "entryFee",
          "type": "uint256"
        },
        {
          "internalType": "uint256",
          "name": "revealDeadline",
          "type": "uint256"
        }
      ],
      "stateMutability": "view",
      "type": "function"
    },
    {
      "inputs": [],
      "name": "factory",
      "outputs": [
        {
          "internalType": "address",
          "name": "",
          "type": "address"
        }
      ],
      "stateMutability": "view",
      "type": "function"
    },
    {
      "inputs": [],
      "name": "getEntryFee",
      "outputs": [
        {
          "internalType": "uint256",
          "name": "",
          "type": "uint256"
        }
      ],
      "stateMutability": "view",
      "type": "function"
    },
    {
      "inputs": [],
      "name": "getJuryCount",
      "outputs": [
        {
          "internalType": "uint256",
          "name": "",
          "type": "uint256"
        }
      ],
      "stateMutability": "view",
      "type": "function"
    },
    {
      "inputs": [],
      "name": "getMatchDetails",
      "outputs": [
        {
          "internalType": "address",
          "name": "player1",
          "type": "address"
        },
        {
          "internalType": "address",
          "name": "player2",
          "type": "address"
        },
        {
          "internalType": "address",
          "name": "winner",
          "type": "address"
        },
        {
          "internalType": "enum MatchContract.MatchStatus",
          "name": "matchStatus",
          "type": "uint8"
        },
        {
          "internalType": "uint256",
          "name": "matchRound",
          "type": "uint256"
        },
        {
          "internalType": "uint256",
          "name": "matchIdx",
          "type": "uint256"
        },
        {
          "internalType": "bool",
          "name": "player1Joined",
          "type": "bool"
        },
        {
          "internalType": "bool",
          "name": "player2Joined",
          "type": "bool"
        },
        {
          "internalType": "uint256",
          "name": "juryCount",
          "type": "uint256"
        }
      ],
      "stateMutability": "view",
      "type": "function"
    },
    {
      "inputs": [],
      "name": "getMatchStatus",
      "outputs": [
        {
          "internalType": "enum MatchContract.MatchStatus",
          "name": "",
          "type": "uint8"
        }
      ],
      "stateMutability": "view",
      "type": "function"
    },
    {
      "inputs": [],
      "name": "getPlayers",
      "outputs": [
        {
          "internalType": "address",
          "name": "player1",
          "type": "address"
        },
        {
          "internalType": "address",
          "name": "player2",
          "type": "address"
        }
      ],
      "stateMutability": "view",
      "type": "function"
    },
    {
      "inputs": [],
      "name": "getWinner",
      "outputs": [
        {
          "internalType": "address",
          "name": "",
          "type": "address"
        }
      ],
      "stateMutability": "view",
      "type": "function"
    },
    {
      "inputs": [],
      "name": "havePlayersJoined",
      "outputs": [
        {
          "internalType": "bool",
          "name": "player1Joined",
          "type": "bool"
        },
        {
          "internalType": "bool",
          "name": "player2Joined",
          "type": "bool"
        }
      ],
      "stateMutability": "view",
      "type": "function"
    },
    {
      "inputs": [
        {
          "internalType": "address",
          "name": "_creator",
          "type": "address"
        },
        {
          "internalType": "address",
          "name": "_player1",
          "type": "address"
        },
        {
          "internalType": "address",
          "name": "_player2",
          "type": "address"
        },
        {
          "internalType": "uint256",
          "name": "_entryFee",
          "type": "uint256"
        },
        {
          "internalType": "address",
          "name": "_tournamentContract",
          "type": "address"
        },
        {
          "internalType": "uint256",
          "name": "_tournamentId",
          "type": "uint256"
        },
        {
          "internalType": "uint256",
          "name": "_roundNumber",
          "type": "uint256"
        },
        {
          "internalType": "uint256",
          "name": "_matchIndex",
          "type": "uint256"
        }
      ],
      "name": "initialize",
      "outputs": [],
      "stateMutability": "nonpayable",
      "type": "function"
    },
    {
      "inputs": [],
      "name": "initialized",
      "outputs": [
        {
          "internalType": "bool",
          "name": "",
          "type": "bool"
        }
      ],
      "stateMutability": "view",
      "type": "function"
    },
    {
      "inputs": [],
      "name": "isTournamentMatch",
      "outputs": [
        {
          "internalType": "bool",
          "name": "",
          "type": "bool"
        }
      ],
      "stateMutability": "view",
      "type": "function"
    },
    {
      "inputs": [],
      "name": "joinJury",
      "outputs": [],
      "stateMutability": "payable",
      "type": "function"
    },
    {
      "inputs": [
        {
          "internalType": "uint256",
          "name": "vote",
          "type": "uint256"
        }
      ],
      "name": "joinJuryAndVote",
      "outputs": [],
      "stateMutability": "payable",
      "type": "function"
    },
    {
      "inputs": [],
      "name": "joinMatch",
      "outputs": [],
      "stateMutability": "payable",
      "type": "function"
    },
    {
      "inputs": [],
      "name": "matchIndex",
      "outputs": [
        {
          "internalType": "uint256",
          "name": "",
          "type": "uint256"
        }
      ],
      "stateMutability": "view",
      "type": "function"
    },
    {
      "inputs": [
        {
          "internalType": "address",
          "name": "",
          "type": "address"
        }
      ],
      "name": "players",
      "outputs": [
        {
          "internalType": "int256",
          "name": "reputation",
          "type": "int256"
        },
        {
          "internalType": "uint256",
          "name": "totalMatches",
          "type": "uint256"
        },
        {
          "internalType": "bool",
          "name": "isBanned",
          "type": "bool"
        }
      ],
      "stateMutability": "view",
      "type": "function"
    },
    {
      "inputs": [],
      "name": "reputationRegistry",
      "outputs": [
        {
          "internalType": "contract ReputationRegistry",
          "name": "",
          "type": "address"
        }
      ],
      "stateMutability": "view",
      "type": "function"
    },
    {
      "inputs": [
        {
          "internalType": "bytes32",
          "name": "salt",
          "type": "bytes32"
        },
        {
          "internalType": "bool",
          "name": "result",
          "type": "bool"
        }
      ],
      "name": "revealResult",
      "outputs": [],
      "stateMutability": "nonpayable",
      "type": "function"
    },
    {
      "inputs": [],
      "name": "roundNumber",
      "outputs": [
        {
          "internalType": "uint256",
          "name": "",
          "type": "uint256"
        }
      ],
      "stateMutability": "view",
      "type": "function"
    },
    {
      "inputs": [],
      "name": "status",
      "outputs": [
        {
          "internalType": "enum MatchContract.MatchStatus",
          "name": "",
          "type": "uint8"
        }
      ],
      "stateMutability": "view",
      "type": "function"
    },
    {
      "inputs": [],
      "name": "tournamentContract",
      "outputs": [
        {
          "internalType": "address",
          "name": "",
          "type": "address"
        }
      ],
      "stateMutability": "view",
      "type": "function"
    },
    {
      "inputs": [],
      "name": "tournamentId",
      "outputs": [
        {
          "internalType": "uint256",
          "name": "",
          "type": "uint256"
        }
      ],
      "stateMutability": "view",
      "type": "function"
    },
    {
      "inputs": [
        {
          "internalType": "uint256",
          "name": "vote",
          "type": "uint256"
        }
      ],
      "name": "voteAsJuror",
      "outputs": [],
      "stateMutability": "nonpayable",
      "type": "function"
    }
  ],
  "bytecode": "0x60c034620000cd57601f62002e6038819003918201601f19168301916001600160401b03831184841017620000d2578084926040948552833981010312620000cd576200005a60206200005283620000e8565b9201620000e8565b6080919091526001600160a01b031660a052604051612d629081620000fe823960805181818161074501528181610bdc01526111a6015260a051818181610b9801528181610ec501528181610fff0152818161177901528181611e1c01528181611f29015281816126d601526129780152f35b600080fd5b634e487b7160e01b600052604160045260246000fd5b51906001600160a01b0382168203620000cd5756fe60406080815260048036101561001457600080fd5b600091823560e01c806302c0cdc41461206557806302d05d3f1461203d57806302edf4b4146120215780630ac2c4c3146120055780630ee67e9014611da8578063158ef93e14611d83578063175c55f914611d65578063200d2ed21461041057806327a6917614611d425780632c70444e14611b405780634e2786fb14611b215780636be6258b14611aff5780638b227ff414611ae25780638b5b9ccc14611aae5780638e7ea5b214611a8557806397427cd214611721578063a4785d1414611704578063ad18f0da146114d0578063aeebaf1b14610f97578063bd18f44c14610e9f578063c05b012414610c29578063c3529f3114610c0b578063c45a015514610bc7578063c8db44e314610b83578063d9229a3a14610afb578063da03fef614610ad7578063dda68b9d146104cc578063e0aff415146104b0578063e2eb41ff1461045b578063e586a4f01461043c578063e8779bf114610410578063e8d3c1f4146103f1578063e97b3489146103bf578063f809ab43146103a0578063fbeb89dd146103735763fc04b787146101ac57600080fd5b3461036f576020908160031936011261036b5782359060ff60055460081c16936005851015610358576101e26003809614612596565b8586601154905b818110610320575b5050156102f15750338552601291828452808287205581519081527fba16d6c69d9501b1e025427f587bcf0a2a79e55b9f669d95965c4e7692d08bda843392a26011549184831015610241578580f35b8594859485949392915b848610610293575050505050501160001461027e57600654610275906001600160a01b031661292b565b38808080808580f35b600754610275906001600160a01b031661292b565b9091929394956102a2876125d6565b905490831b1c6001600160a01b03168952838352848920546001036102dd576102cd6102d391612665565b96612665565b949392919061024b565b95966102eb6102d391612665565b97612665565b83606492519162461bcd60e51b8352820152600b60248201526a2737ba103090353ab937b960a91b6044820152fd5b610329816125d6565b905490891b1c6001600160a01b0316331461034c5761034790612665565b6101e9565b505050600138806101f1565b634e487b7160e01b865260219052602485fd5b8380fd5b8280fd5b83823461039c578160031936011261039c5760015490516001600160a01b039091168152602090f35b5080fd5b83823461039c578160031936011261039c576020906002549051908152f35b5082346103ee57806003193601126103ee5750600b5460ff8251918181161515835260081c1615156020820152f35b80fd5b83823461039c578160031936011261039c576020906011549051908152f35b83823461039c578160031936011261039c5760209061043a60ff60055460081c1691518092612167565bf35b83823461039c578160031936011261039c576020906010549051908152f35b83823461039c57602036600319011261039c5760609181906001600160a01b03610483612288565b1681526014602052209081549160ff60026001830154920154169082519384526020840152151590820152f35b83823461039c578160031936011261039c5760209051600f8152f35b503461036f576104db366122a3565b9060018060a01b03938460065416331492838015610aca575b6104fd906122d9565b60059260ff845460081c1684811015610ab757600203610a7e576013544211610a4357855194602095868101906d092bee4cae0dee4e8bee8e4eae8d60931b825283602e820152602e81526105518161220a565b51902090156108d2576105679060095414612367565b81156108c5576105756123a4565b80519067ffffffffffffffff82116108b257908994939291610598600c5461218a565b601f811161086e575b508790601f83116001146107fa57869190836107ef575b50508160011b916000199060031b1c191617600c555b600e5561060186516105df816121ee565b6011815270141b185e595c880c481c995d99585b1959607a1b87820152612c46565b156107d057600080516020612d0d83398151915261062c6106206123a4565b875191829133836123f2565b0390a161065b855161063d816121ee565b600d81526c109bdd1a081c995d99585b1959609a1b86820152612c46565b600e541515806107c5575b61066e575080f35b8451928484018461067e82612417565b0394610692601f1996878101835282612226565b5190208651868101906106b4816106a884612494565b03888101835282612226565b519020036107345750505082516106de83820192826106d285612494565b03908101835282612226565b5190209151908101906a383630bcb2b9192fbbb7b760a91b8252600b8152610705816121ee565b519020036107225761071a906007541661268a565b388080808480f35b61072f906006541661268a565b61071a565b805461ff00191661030017905590947f0000000000000000000000000000000000000000000000000000000000000000169392509050823b156107c057839260248492845195869384926362eefef760e11b845230908401525af19081156107b757506107a3575b505061071a565b6107ac906121c4565b6103ee57803861079c565b513d84823e3d90fd5b505050fd5b50600f541515610666565b600080516020612d0d83398151915261062c6107ea6123cb565b610620565b0151905038806105b8565b600c8752600080516020612ccd8339815191529190601f198416885b8b82821061085557505090846001959493921061083c575b505050811b01600c556105ce565b015160001960f88460031b161c1916905538808061082e565b8484015186558f9a506001909501949384019301610816565b6108a290600c8852600080516020612ccd833981519152601f85018a1c8101918b86106108a8575b601f018a1c01906122c2565b386105a1565b9091508190610896565b634e487b7160e01b8a526041855260248afd5b6108cd6123cb565b610575565b6108df90600a5414612367565b8115610a36576108ed6123cb565b80519067ffffffffffffffff82116108b257908994939291610910600d5461218a565b601f81116109fd575b508790601f8311600114610989578691908361097e575b50508160011b916000199060031b1c191617600d555b600f556109798651610957816121ee565b6011815270141b185e595c880c881c995d99585b1959607a1b87820152612c46565b610601565b015190503880610930565b600d8752600080516020612ced8339815191529190601f198416885b8b8282106109e45750509084600195949392106109cb575b505050811b01600d55610946565b015160001960f88460031b161c191690553880806109bd565b8484015186558f9a5060019095019493840193016109a5565b610a3090600d8852600080516020612ced833981519152601f85018a1c8101918b86106108a857601f018a1c01906122c2565b38610919565b610a3e6123a4565b6108ed565b855162461bcd60e51b8152602081850152601560248201527414995d99585b081c195c9a5bd908195e1c1a5c9959605a1b6044820152606490fd5b855162461bcd60e51b815260208185015260136024820152724e6f7420696e2072657665616c20706861736560681b6044820152606490fd5b634e487b7160e01b895260218452602489fd5b50600754861633146104f4565b83823461039c578160031936011261039c5760209060ff6005541690519015158152f35b503461036f578260031936011261036f57610120925060ff60018060a01b03918260065416938360075416936008541690610b5c8460055460081c16600354925493600b54956011549881519a8b5260208b01528901526060880190612167565b608086015260a0850152818116151560c085015260081c16151560e0830152610100820152f35b83823461039c578160031936011261039c57517f00000000000000000000000000000000000000000000000000000000000000006001600160a01b03168152602090f35b83823461039c578160031936011261039c57517f00000000000000000000000000000000000000000000000000000000000000006001600160a01b03168152602090f35b83823461039c578160031936011261039c57602090516202a3008152f35b5082903461039c578160031936011261039c576001546001600160a01b03169233849003610e535760055460ff8160081c166005811015610e40578203610e075760ff1615610dcc574792825194610c80866121ee565b60118652610ca9856020977002932b6b0b4b734b73390233ab732399d1607d1b89820152612c87565b6000808551610cb7816121ee565b601581527402a37bab93730b6b2b73a1031b7b73a3930b1ba1d1605d1b898201528651610d1381610cff8c82019463319af33360e01b86528b60248401526064830190612248565b87604483015203601f198101835282612226565b51906a636f6e736f6c652e6c6f675afa508480610d7b575b50505050610d758151610d3d8161220a565b602281527f5472616e7366657272656420746f20746f75726e616d656e7420636f6e747261858201526118dd60f21b83820152612c46565b51908152f35b8280929181925af1610d8b6128eb565b5015610d9957808084610d2b565b83606492519162461bcd60e51b8352820152600f60248201526e151c985b9cd9995c8819985a5b1959608a1b6044820152fd5b6020606492519162461bcd60e51b8352820152601660248201527509cdee840c240e8deeae4dcc2dacadce840dac2e8c6d60531b6044820152fd5b506020606492519162461bcd60e51b8352820152601360248201527213585d18da081b9bdd0818dbdb5c1b195d1959606a1b6044820152fd5b634e487b7160e01b855260218352602485fd5b6020608492519162461bcd60e51b8352820152602160248201527f4f6e6c7920746f75726e616d656e742063616e20636f6c6c6563742066756e646044820152607360f81b6064820152fd5b50908260031936011261036f5781516397f735d560e01b815233828201526020816024817f00000000000000000000000000000000000000000000000000000000000000006001600160a01b03165afa908115610f8a57610f0a9293508491610f5c575b5015612516565b610f1d67016345785d8a00003414612553565b60ff60055460081c16906005821015610f4957506003610f3d9114612596565b610f4633612623565b80f35b634e487b7160e01b835260219052602482fd5b610f7d915060203d8111610f83575b610f758183612226565b8101906124fe565b38610f03565b503d610f6b565b50505051903d90823e3d90fd5b50610fa1366122a3565b60018060a01b039384600654163314928380156114c3575b610fc2906122d9565b60059260ff845460081c169184831015610ab757610fe36001809414612325565b8651630c2eb40360e01b815233858201526020969087816024817f00000000000000000000000000000000000000000000000000000000000000008e165afa9081156114b9578b91611488575b50340361144c578751878101906d092bee4cae0dee4e8bee8e4eae8d60931b825283602e820152602e81526110648161220a565b51902090156112ee57600955600e55156112e1576110806123a4565b809181519167ffffffffffffffff83116108b2579089949392916110a5600c5461218a565b601f81116112a8575b508790601f8411600114611221579280600080516020612d0d83398151915295938193611123968a94611216575b50501b916000199060031b1c191617600c555b7fcc23703cd45173f69f30fe27972f3df154330563d4b4e84385f55bed07d55da1878951338152a1875191829133836123f2565b0390a1600e5415158061120b575b611139575080f35b8451928484018461114982612417565b039461115d601f1996878101835282612226565b519020865186810190611173816106a884612494565b519020036111915750505082516106de83820192826106d285612494565b91959250925061030061ff00198254161790557f000000000000000000000000000000000000000000000000000000000000000016803b156107c05760248492845195869384926362eefef760e11b845230908401525af19081156107b757506111fc575b5061071a565b611205906121c4565b386111f6565b50600f541515611131565b0151925038806110dc565b600c8752919291600080516020612ccd8339815191529190601f198416885b8b8282106112915750509161112395939185600080516020612d0d83398151915298969410611278575b505050811b01600c556110ef565b015160001960f88460031b161c1916905538808061126a565b8484015186558f9a50948701949384019301611240565b6112db90600c8852600080516020612ccd833981519152601f86018a1c8101918b87106108a857601f018a1c01906122c2565b386110ae565b6112e96123cb565b611080565b600a55600f551561143f576113016123cb565b809181519167ffffffffffffffff83116108b257908994939291611326600d5461218a565b601f8111611406575b508790601f841160011461137f579280600080516020612d0d83398151915295938193611123968a94611374575b50501b916000199060031b1c191617600d556110ef565b01519250388061135d565b600d8752919291600080516020612ced8339815191529190601f198416885b8b8282106113ef5750509161112395939185600080516020612d0d833981519152989694106113d6575b505050811b01600d556110ef565b015160001960f88460031b161c191690553880806113c8565b8484015186558f9a5094870194938401930161139e565b61143990600d8852600080516020612ced833981519152601f86018a1c8101918b87106108a857601f018a1c01906122c2565b3861132f565b6114476123a4565b611301565b875162461bcd60e51b81528086018890526016602482015275125b98dbdc9c9958dd081cdd185ad948185b5bdd5b9d60521b6044820152606490fd5b90508781813d83116114b2575b61149f8183612226565b810103126114ae575138611030565b8a80fd5b503d611495565b89513d8d823e3d90fd5b5060075486163314610fb9565b50903461036f5761010036600319011261036f576114ec612288565b6024356001600160a01b038181169491939192908585036117005760443595818716908188036116fc57608435938385168095036116f85789549060ff8260a01c166116bf576bffffffffffffffffffffffff60a01b94859116911617895582600654161760065581600754161760075580600854166008556064356010556202a30042018042116116ac5760135561ff00196005541660055561ffff19600b5416600b5583516020810181811067ffffffffffffffff82111761169957908891865252601154876011558061165b575b50917f400084faa1d1feebd72b5492202d9905c0f245dfb43e76ca408fb6f113188e289594939161162793601189528161162d575b5050865460ff60a01b1916600160a01b17875550516001600160a01b0392831681529190921660208201529081906040820190565b0390a180f35b600154161760015560a43560025560c43560035560e4359055600160ff1960055416176005553880806115f2565b7f31ecc21a745e3968a04e9570e4425bc18fa8019c68028196b546d1669c200c68908101905b81811061168e57506115bd565b888155600101611681565b634e487b7160e01b895260418552602489fd5b634e487b7160e01b885260118452602488fd5b875162461bcd60e51b81526020818901526013602482015272105b1c9958591e481a5b9a5d1a585b1a5e9959606a1b6044820152606490fd5b8980fd5b8880fd5b8680fd5b83823461039c578160031936011261039c57516018198152602090f35b5091906020928360031936011261036f5781359160ff60055460081c16916005831015611a72576117556003809414612596565b80516397f735d560e01b815233838201526001600160a01b039490602490888183817f00000000000000000000000000000000000000000000000000000000000000008b165afa908115611a6857906117b5918991611a51575015612516565b6117c867016345785d8a00003414612553565b6001938483148015611a47575b156119ee57878085516117e7816121ee565b6006815265081593d5115160d21b8c82015261181b6118298d895192839182019463759f86bb60e01b8652338a84016123f2565b03601f198101835282612226565b51906a636f6e736f6c652e6c6f675afa50611860838551611849816121ee565b600681526502b27aa229d160d51b8c820152612c87565b60115491885b838110611995575050505061187a33612623565b338652601290818852808388205582519081527fba16d6c69d9501b1e025427f587bcf0a2a79e55b9f669d95965c4e7692d08bda883392a260115496848810156118c2578680f35b939291908694879488945b8a861061191857509798506118f597505050508183111590506119005750506006541661292b565b803880808080808680f35b111561190f576007541661292b565b6006541661292b565b90919293949688611928896125d6565b905490851b1c168a52848452858a20548203611954576102eb61194a91612665565b94939291906118cd565b968861195f826125d6565b905490851b1c168a528484526002868b205414611980575b61194a90612665565b9561198d61194a91612665565b969050611977565b8861199f826125d6565b9054908a1b1c1633146119ba576119b590612665565b611866565b855162461bcd60e51b81528084018c9052600f818401526e20b63932b0b23c903090353ab937b960891b6044820152606490fd5b60306084928a86519362461bcd60e51b85528401528201527f496e76616c696420766f74653a206d75737420626520312028706c617965723160448201526f29206f7220322028706c61796572322960801b6064820152fd5b50600283146117d5565b610f7d91508a3d8c11610f8357610f758183612226565b84513d8a823e3d90fd5b634e487b7160e01b855260218252602485fd5b83823461039c578160031936011261039c5760085490516001600160a01b039091168152602090f35b5082346103ee57806003193601126103ee575060065460075491516001600160a01b03918216815291166020820152604090f35b83823461039c578160031936011261039c57516031198152602090f35b83823461039c578160031936011261039c576020905166b1a2bc2ec500008152f35b83823461039c578160031936011261039c576020906003549051908152f35b83823461039c578160031936011261039c5760018060a01b039182600654169183600754169360085416600954600a5493600b5484519082600c549383611b868661218a565b918282526001968781169081600014611d235750600114611cd7575b611bae92500384612226565b86519381859291600d5491611bc28361218a565b80865292828116908115611cb75750600114611c6b575b50505003611be79084612226565b600e5496600f5494601054966013549880519c8d9c8d5260208d01528b015260608a0152608089015260ff8116151560a089015260081c60ff16151560c08801526101a08060e08901528701611c3c91612248565b868103610100880152611c4e91612248565b936101208601526101408501526101608401526101808301520390f35b91939250600d8252600080516020612ced8339815191525b848310611c9c57505081602092935001018b8080611bd9565b81935090816020925483858b01015201910190918692611c83565b925050506020925060ff191682840152151560051b8201018b8080611bd9565b50600c835290829086600080516020612ccd8339815191525b828410611d0957505050906020611bae92820101611ba2565b6020929450805483858a0101520191019091868693611cf0565b60209250611bae94915060ff191682840152151560051b820101611ba2565b83823461039c578160031936011261039c576020905167016345785d8a00008152f35b50903461036f578260031936011261036f5760209250549051908152f35b83823461039c578160031936011261039c5760ff6020925460a01c1690519015158152f35b509060208060031936011261036b57600654823593906001600160a01b039081163314808015611ff8575b611ddc906122d9565b60ff60055460081c166005811015611fe557918491611dff600160249514612325565b15611f11578351630c2eb40360e01b8152338782015292839182907f0000000000000000000000000000000000000000000000000000000000000000165afa908115611f07578691611ed6575b503403611e89575050506009555b600954151580611e7e575b611e6c5780f35b61020061ff0019600554161760055580f35b50600a541515611e65565b5162461bcd60e51b815291820152602360248201527f496e636f7272656374207374616b6520616d6f756e7420666f7220706c61796560448201526272203160e81b606482015260849150fd5b90508281813d8311611f00575b611eed8183612226565b81010312611efc575138611e4c565b8580fd5b503d611ee3565b82513d88823e3d90fd5b8351630c2eb40360e01b8152338782015292839182907f0000000000000000000000000000000000000000000000000000000000000000165afa908115611f07578691611fb8575b503403611f6b57505050600a55611e5a565b5162461bcd60e51b815291820152602360248201527f496e636f7272656374207374616b6520616d6f756e7420666f7220706c61796560448201526239101960e91b606482015260849150fd5b90508281813d8311611fde575b611fcf8183612226565b81010312611efc575138611f59565b503d611fc5565b634e487b7160e01b885260218652602488fd5b5060075482163314611dd3565b83823461039c578160031936011261039c5760209051600a8152f35b83823461039c578160031936011261039c576020905160058152f35b83823461039c578160031936011261039c57905490516001600160a01b039091168152602090f35b50908260031936011261036f57600654336001600160a01b039182161492906120979084908115612159575b506122d9565b6010543403612124575050337f31e760aa525306aba638a784082a013b6a1cc0a9a1789f3f22281c0453b10b1f8380a21561211057600160ff19600b541617600b555b600b5460ff81169081612102575b506120f05780f35b61010061ff0019600554161760055580f35b60ff915060081c16386120e8565b61010061ff0019600b541617600b556120da565b906020606492519162461bcd60e51b8352820152600f60248201526e57726f6e6720456e7472792046656560881b6044820152fd5b905060075416331438612091565b9060058210156121745752565b634e487b7160e01b600052602160045260246000fd5b90600182811c921680156121ba575b60208310146121a457565b634e487b7160e01b600052602260045260246000fd5b91607f1691612199565b67ffffffffffffffff81116121d857604052565b634e487b7160e01b600052604160045260246000fd5b6040810190811067ffffffffffffffff8211176121d857604052565b6060810190811067ffffffffffffffff8211176121d857604052565b90601f8019910116810190811067ffffffffffffffff8211176121d857604052565b919082519283825260005b848110612274575050826000602080949584010152601f8019910116010190565b602081830181015184830182015201612253565b600435906001600160a01b038216820361229e57565b600080fd5b604090600319011261229e5760043590602435801515810361229e5790565b8181106122cd575050565b600081556001016122c2565b156122e057565b60405162461bcd60e51b815260206004820152601a60248201527f4e6f74206120706c61796572206f662074686973204d617463680000000000006044820152606490fd5b1561232c57565b60405162461bcd60e51b81526020600482015260136024820152724e6f7420696e20636f6d6d697420706861736560681b6044820152606490fd5b1561236e57565b60405162461bcd60e51b815260206004820152600e60248201526d125b9d985b1a59081c995d99585b60921b6044820152606490fd5b604051906123b1826121ee565b600b82526a383630bcb2b918afbbb7b760a91b6020830152565b604051906123d8826121ee565b600b82526a383630bcb2b9192fbbb7b760a91b6020830152565b6001600160a01b03909116815260406020820181905261241492910190612248565b90565b600c54600092916124278261218a565b91600190818116908115612481575060011461244257505050565b9091929350600c600052600080516020612ccd833981519152906000915b84831061246e575050500190565b8181602092548587015201920191612460565b60ff191683525050811515909102019150565b600d54600092916124a48261218a565b9160019081811690811561248157506001146124bf57505050565b9091929350600d600052600080516020612ced833981519152906000915b8483106124eb575050500190565b81816020925485870152019201916124dd565b9081602091031261229e5751801515810361229e5790565b1561251d57565b60405162461bcd60e51b815260206004820152600e60248201526d165bdd48185c994818985b9b995960921b6044820152606490fd5b1561255a57565b60405162461bcd60e51b8152602060048201526014602482015273496e636f7272656374206a757279207374616b6560601b6044820152606490fd5b1561259d57565b60405162461bcd60e51b81526020600482015260116024820152704e6f20616374697665206469737075746560781b6044820152606490fd5b60115481101561260d5760116000527f31ecc21a745e3968a04e9570e4425bc18fa8019c68028196b546d1669c200c680190600090565b634e487b7160e01b600052603260045260246000fd5b601154680100000000000000008110156121d85780600161264792016011556125d6565b819291549060031b9160018060a01b03809116831b921b1916179055565b60001981146126745760010190565b634e487b7160e01b600052601160045260246000fd5b6005805461ff001916610400179055600880546001600160a01b0319166001600160a01b038381169182179092556006549092600092909181168085036128e557508060075416905b807f00000000000000000000000000000000000000000000000000000000000000001691823b156128e15760409283519063af8c524760e01b91828152886004820152600f6024820152876044820152878160648183865af180156128d7576128c4575b50803b15611700579160648792838695885196879586948552166004840152600a60248401528160448401525af180156128ba579085916128a6575b505060ff600554166127a9575b505050807fe24a70990ecb8faa452b0c2734367241a6a9e50789ef324c26e59e09b0bc133291a2565b600254906127eb8284516127bc816121ee565b601781527f546f75726e616d656e742064657461696c733a2069643d0000000000000000006020820152612c87565b6128298284516127fa816121ee565b601c81527f5265706f7274696e6720746f20746f75726e616d656e742e2049443a000000006020820152612c87565b6001541660035460045492823b15611700578451635d41d3eb60e11b81526004810191909152602481019190915260448101929092526001600160a01b039390931660648201529183908390608490829084905af19081156107b75750612892575b8080612780565b61289c82916121c4565b6103ee573861288b565b6128af906121c4565b61036b578338612773565b83513d87823e3d90fd5b6128d0909791976121c4565b9538612737565b86513d8a823e3d90fd5b8480fd5b906126d3565b3d15612926573d9067ffffffffffffffff82116121d8576040519161291a601f8201601f191660200184612226565b82523d6000602084013e565b606090565b6005805461ff001916610400178155600880546001600160a01b0319166001600160a01b0384811691821790925560065460009491939192908116808503612c4057508060075416905b807f00000000000000000000000000000000000000000000000000000000000000001690813b156117005760409384519263af8c524760e01b92838552806004961686860152602490603119828701526044988b8a8801526064968c81898183895af18015612afd57612c2f575b50878c91848b60ff895416600014612b935760015460025460035495549251635d41d3eb60e11b60208083019182529582019283529482019690965260408101929092526001600160a01b0390931660608201528493928616928491612a4d90829060800161181b565b51925af1612a596128eb565b5015612b46575b8a5b601154811015612b1557818c80808066b1a2bc2ec50000612a82876125d6565b969054600397881b1c1682f115612b0b578290612a9e836125d6565b9054911b1c16843b15612b07578951908782528982015285848201528c8b8201528c81898183895af18015612afd57908d91612ae5575b5050612ae090612665565b612a62565b612aee906121c4565b612af9578b38612ad5565b8b80fd5b8a513d8f823e3d90fd5b8c80fd5b89513d8e823e3d90fd5b50505050505050505050907fe24a70990ecb8faa452b0c2734367241a6a9e50789ef324c26e59e09b0bc13329080a2565b612b8e8851612b548161220a565b8381527f4661696c656420746f207265706f7274206d6174636820746f20746f75726e616020820152631b595b9d60e21b8a820152612c46565b612a60565b50505050506010548060011b9080820460021490151715612c1d576011549066b1a2bc2ec500009180830292830403612c0b5781810391818311612bf9578d80938e82948394849114612bf0575bf1612a605787513d8c823e3d90fd5b506108fc612be1565b634e487b7160e01b8e5260118a52848efd5b634e487b7160e01b8d5260118952838dfd5b634e487b7160e01b8c5260118852828cfd5b9b612c3a899d6121c4565b9b6129e3565b90612975565b60008091604051612c748161181b602082019463104c13eb60e21b8652602060248401526044830190612248565b51906a636f6e736f6c652e6c6f675afa50565b600091908291612c746040518092612cb86020830195632d839cb360e21b8752604060248501526064840190612248565b90604483015203601f19810183528261222656fedf6966c971051c3d54ec59162606531493a51404a002842f56009d7e5cf4a8c7d7b6990105719101dabeb77144f2a3385c8033acd3af97e9423a695e81ad1eb594fab3ba1113bc89a86444f7eaec86f02c0a085123dbfcae921465bed91a6145a2646970667358221220037c0a207b4261a194a5f199e93212136860deda52d56e652919f257912104a764736f6c63430008140033",
  "linkReferences": {},
  "deployedLinkReferences": {}
}