{
  "_format": "hh-sol-artifact-1",
  "contractName": "ReputationRegistry",
  "sourceName": "contracts/ReputationRegistry.sol",
  "abi": [
    {
      "inputs": [
        {
          "internalType": "address",
          "name": "_factory",
          "type": "address"
        }
      ],
      "stateMutability": "nonpayable",
      "type": "constructor"
    },
    {
      "anonymous": false,
      "inputs": [
        {
          "indexed": true,
          "internalType": "address",
          "name": "player",
          "type": "address"
        },
        {
          "indexed": false,
          "internalType": "bool",
          "name": "change",
          "type": "bool"
        }
      ],
      "name": "PlayerBanStatusChanged",
      "type": "event"
    },
    {
      "anonymous": false,
      "inputs": [
        {
          "indexed": true,
          "internalType": "address",
          "name": "player",
          "type": "address"
        },
        {
          "indexed": false,
          "internalType": "int256",
          "name": "change",
          "type": "int256"
        }
      ],
      "name": "ReputationUpdated",
      "type": "event"
    },
    {
      "inputs": [],
      "name": "BAN_THRESHOLD",
      "outputs": [
        {
          "internalType": "int256",
          "name": "",
          "type": "int256"
        }
      ],
      "stateMutability": "view",
      "type": "function"
    },
    {
      "inputs": [],
      "name": "factory",
      "outputs": [
        {
          "internalType": "address",
          "name": "",
          "type": "address"
        }
      ],
      "stateMutability": "view",
      "type": "function"
    },
    {
      "inputs": [
        {
          "internalType": "address",
          "name": "_player",
          "type": "address"
        }
      ],
      "name": "getReputation",
      "outputs": [
        {
          "internalType": "int256",
          "name": "",
          "type": "int256"
        }
      ],
      "stateMutability": "view",
      "type": "function"
    },
    {
      "inputs": [
        {
          "internalType": "address",
          "name": "player",
          "type": "address"
        }
      ],
      "name": "getStakeAmount",
      "outputs": [
        {
          "internalType": "uint256",
          "name": "",
          "type": "uint256"
        }
      ],
      "stateMutability": "view",
      "type": "function"
    },
    {
      "inputs": [
        {
          "internalType": "address",
          "name": "_player",
          "type": "address"
        }
      ],
      "name": "isBanned",
      "outputs": [
        {
          "internalType": "bool",
          "name": "",
          "type": "bool"
        }
      ],
      "stateMutability": "view",
      "type": "function"
    },
    {
      "inputs": [
        {
          "internalType": "address",
          "name": "",
          "type": "address"
        }
      ],
      "name": "reputations",
      "outputs": [
        {
          "internalType": "int256",
          "name": "score",
          "type": "int256"
        },
        {
          "internalType": "bool",
          "name": "isBanned",
          "type": "bool"
        },
        {
          "internalType": "uint256",
          "name": "lastUpdated",
          "type": "uint256"
        }
      ],
      "stateMutability": "view",
      "type": "function"
    },
    {
      "inputs": [
        {
          "internalType": "address",
          "name": "player",
          "type": "address"
        },
        {
          "internalType": "int256",
          "name": "change",
          "type": "int256"
        },
        {
          "internalType": "bool",
          "name": "banStatus",
          "type": "bool"
        }
      ],
      "name": "updateReputation",
      "outputs": [],
      "stateMutability": "nonpayable",
      "type": "function"
    }
  ],
  "bytecode": "0x60803461007457601f61046d38819003918201601f19168301916001600160401b038311848410176100795780849260209460405283398101031261007457516001600160a01b0381169081900361007457600180546001600160a01b0319169190911790556040516103dd90816100908239f35b600080fd5b634e487b7160e01b600052604160045260246000fdfe60806040818152600436101561001457600080fd5b600091823560e01c90816306fa15a71461029e575080630c2eb4031461027257806397f735d5146102325780639c89a0e2146101fc578063af8c5247146100b6578063c45a01551461008e5763df2303611461006f57600080fd5b3461008a578160031936011261008a57516063198152602090f35b5080fd5b503461008a578160031936011261008a5760015490516001600160a01b039091168152602090f35b503461008a57606036600319011261008a576100d06102f3565b6044359160243591831590811585036101f85760018060a01b0316938486528560205282862091600183019060ff825416928454878101908a89831291129080158216911516176101e45785938993602098969360ff937f21b93f5364d09d606ec33450e45ad2e33958e3dac6c4f771ed1218f1eca47db59b9955906101dd575b815490151560ff1660ff1991909116178155845460631913156101d45761018660015b829060ff801983541691151516179055565b5416151580911515036101a4575b505060024291015551908152a280f35b857f1a2d4e1096bf25b27631e42f3dd6be56641319151f1175ed3e8ab414f577dc8e918551908152a28538610194565b6101868b610174565b5082610151565b634e487b7160e01b8a52601160045260248afd5b8580fd5b503461008a57602036600319011261008a5760209181906001600160a01b036102236102f3565b16815280845220549051908152f35b503461008a57602036600319011261008a5760209160ff9060019083906001600160a01b0361025f6102f3565b1681528086522001541690519015158152f35b503461008a57602036600319011261008a576020906102976102926102f3565b61030e565b9051908152f35b919050346102ef5760203660031901126102ef5760609281906001600160a01b036102c76102f3565b168152806020522090815491600260ff60018301541691015492845215156020840152820152f35b8280fd5b600435906001600160a01b038216820361030957565b600080fd5b6001600160a01b031660008181526020819052604081206001015490919060ff166103725781528060205260408120546032811215610364571261035857670de0b6b3a764000090565b671bc16d674ec8000090565b5050674563918244f4000090565b60405162461bcd60e51b815260206004820152600d60248201526c2130b73732b210383630bcb2b960991b6044820152606490fdfea2646970667358221220b4d1853144b274018d5d7c727b765094c7734250566a7118e30edaa6a67a190564736f6c63430008140033",
  "linkReferences": {},
  "deployedLinkReferences": {}
}